:10000000ABC0F8C4CEC0CDC0CCC0CBC0CAC0C9C084
:10001000C8C07AC4C6C0C5C0C4C0C3C0C2C0C1C005
:10002000C0C0BFC0BEC01201010100000008C01660
:10003000DC2700010102000105010905A1010901F8
:10004000A1000501093009310933093409350936A0
:10005000150026FF00750895068102C005091901E3
:10006000291015002501750195108102C0000000BE
:100070000000000000000304060000000000000073
:10008000001112131415160A0B0C0D0E0F000102AD
:1000900003040500000000380035003200000000B5
:1000A0000037003400310004040404040404040292
:1000B0000202020202030303030303010204081005
:1000C00020408001020408102001020408102020B2
:1000D00003640072006F006E0065006600690078BE
:1000E000002E00720075003A0052005200580016AF
:1000F000035200610069006E0062006F007700200B
:1001000000520058001803640072006F006E006512
:10011000006600690078002E007200750004030973
:1001200004090222000101008032090400000103D9
:1001300000000009210101000122350007058103AB
:1001400008000A1201100100000008C016DC270098
:10015000010102030100C00711241FBECFE5D4E056
:10016000DEBFCDBF10E0A0E6B0E0EAE4F0E102C0FF
:1001700005900D92AC36B107D9F720E0ACE6B0E0BF
:1001800001C01D92A13FB207E1F710E0CCEAD0E038
:1001900003C02197FE0144D7CB3AD107D1F74BD505
:1001A00052C72ECF90E0FC01E554FF4F2491FC0193
:1001B000E955FF4F8491882399F090E0880F991FAB
:1001C000FC01E356FF4FA591B491FC01ED56FF4FA2
:1001D000859194918FB7F894EC91E22BEC938FBFBB
:1001E000089590E0FC01E359FF4F3491FC01E55480
:1001F000FF4F2491FC01E955FF4FE491EE2331F1CB
:10020000332381F0343039F0363049F0333051F453
:100210008FB58F7702C08FB58F7D8FBD03C085B539
:100220008F7D85BDF0E0EE0FFF1FED56FF4FA591CE
:10023000B4918FB7F894611105C09C91E22FE095BD
:10024000E92302C0EC91E22BEC938FBF08953FB7F6
:10025000F8948091710090917200A0917300B09118
:10026000740022B708B600FE05C02F3F19F00196B2
:10027000A11DB11D3FBFBA2FA92F982F8827820F2C
:10028000911DA11DB11DBC01CD0142E0660F771F7C
:10029000881F991F4A95D1F708958F929F92AF9228
:1002A000BF92CF92DF92EF92FF92D1DF4B015C01C0
:1002B00085E0C82ED12CE12CF12CC9DFDC01CB016B
:1002C00088199909AA09BB09883E9340A105B1057F
:1002D00058F021E0C21AD108E108F10888EE880E32
:1002E00083E0981EA11CB11CC114D104E104F104E7
:1002F00021F7FF90EF90DF90CF90BF90AF909F904D
:100300008F9008952FB7F89460916D0070916E00F2
:1003100080916F00909170002FBF08958FB90000F9
:10032000779BFECF8FB108958F929F92AF92BF922D
:10033000CF92DF92EF92FF920F931F93CF93DF93B1
:100340008091D800835087FDD4C09091D700209130
:10035000D6002D3209F0CBC0883009F0C8C0ECE0DF
:10036000F0E0E91BF109E552FF4F83EC8093BE00FA
:100370008AE5809369001092A50080818076F1F073
:1003800026E930E03093A7002093A600803209F0E0
:10039000A4C08181813009F49EC0823041F48AE694
:1003A00090E09093A7008093A60081E097C08A30E8
:1003B00009F093C0838180936A008FC0928110926C
:1003C000C7008181811106C01092C80027EC30E07F
:1003D00082E07CC0853019F49093D90074C08630D7
:1003E00009F05BC08381813041F483E491E0909314
:1003F000A7008093A60082E14CC0823041F481E2E4
:1004000091E09093A7008093A60082E242C08330DF
:1004100041F5911108C08DE191E09093A700809380
:10042000A60084E036C0913041F485E091E09093DD
:10043000A7008093A60088E12CC0923041F48FEE93
:1004400090E09093A7008093A60086E122C09330AD
:10045000F9F48FEC90E09093A7008093A60080E2DF
:1004600018C0813241F483E391E09093A700809318
:10047000A60089E00EC0823259F48091A2009091CA
:10048000A3009093A7008093A6008091A10001C0D3
:1004900080E090E49093A50021C0883069F0893015
:1004A00019F49093A4000FC08A3049F08B3059F4AE
:1004B0008BE48093CA0007C024EA30E002C027EC36
:1004C00030E081E003C027EC30E080E03093A7000B
:1004D0002093A60003C088E001C080E097819111BD
:1004E00004C09681981708F4892F809368001092B1
:1004F000D8008091690084FF47C0809168008F3FD9
:1005000009F442C0C82F893008F0C8E08C1B8093E2
:1005100068009091BE0088E889278093BE00CC23B4
:1005200039F18091A6009091A7002091A50026FFA7
:100530000BC0AFEBB0E0FC012C2F280F34913D93A2
:1005400031962E13FBCF09C0DC01EFEBF0E02C2F2E
:100550002E0F3D9131932E13FCCF2FEF2C0F30E057
:100560002F5F3F4F820F931F9093A7008093A600A9
:100570006C2F8FEB90E027D2CC5FCC3019F08FEF4F
:1005800080936800C093690084E190B3947131F462
:100590008150D9F71092D9001092D500D1E0811185
:1005A000D0E08091A8008D17B1F1D11132C0F8943C
:1005B00008E010E0C0E080E8D82ECD2CCC0EC1BE03
:1005C00006D27C018C3E98400CF4CC2DD694015080
:1005D000110999F78FEF8C0F81BF0C2F10E00F5F7F
:1005E0001F4F21B730E0021713078CF0F0D18C5E5B
:1005F000984097FF03C09195819591098E159F05AD
:1006000014F4C1B77C0181B78F5F81BFEACFC1BF4E
:100610007894D093A80076DEC090BA00D090BB004A
:10062000E090BC00F090BD0020916A0044E0249F5F
:10063000900111244901330FAA08BB088B019C01CA
:100640000C191D092E093F09081519052A053B0536
:1006500088F0D501C4018C0D9D1DAE1DBF1D80937A
:10066000BA009093BB00A093BC00B093BD0081E0A2
:100670008093B90048E050E069EA70E081EB90E0D7
:10068000D5D4892B19F081E08093B9008091B9000D
:100690008823B9F18091C90084FF33C01092B9005A
:1006A00088E0E1EBF0E0A6E9B0E001900D928A95D8
:1006B000E1F788E0E1EBF0E0A9EAB0E001900D920B
:1006C0008A95E1F78091C90084FF07C09091CA0024
:1006D00088E889278093CA0003C08AE58093C9000F
:1006E000A6E9B0E0EBECF0E088E08E0F9D919193ED
:1006F0008E13FCCF68E08BEC90E065D18CE08093AA
:10070000C900DF91CF911F910F91FF90EF90DF9083
:10071000CF90BF90AF909F908F9008950F931F93AD
:10072000109260008FE78093610080936200809355
:1007300063008093640080936500109266001092BD
:100740006700AB98DFDD0091760010917700209173
:10075000780030917900DC01CB01801B910BA20B5A
:10076000B30B4597A105B10550F0CCDD6093760041
:10077000709377008093780090937900D5DDA895E9
:100780001F910F9108956D989DB1937F9DB99DB173
:100790009C7F9DB9709A682F8091800022DD8091A6
:1007A0009200909193008230910538F0880F991F44
:1007B000880F991F05970197F1F7089580E0E3CF1F
:1007C0001F93CF93DF931F92CDB7DEB78983F6DFF8
:1007D00089818F71A3DD8FEFA1DD182F81E0D3DF39
:1007E000812F0F90DF91CF911F910895CF93E6DF76
:1007F00081EE94DDC82F81E0C6DF8C2FCF91089564
:100800001F93CF93DF9300D0CDB7DEB76A83898380
:10081000D5DF89818F71806281DD182F6A81862FF3
:100820007DDD81E0B0DF812F0F900F90DF91CF91C0
:100830001F91089580E0C4DF81FD05C0682F6260CC
:1008400080E0DEDF2ACD08950F931F93CF938C01B4
:1008500086E0B6DFC82FC77D0230110531F4C062D3
:100860008BE990E0A0E0B0E00DC00130110529F067
:1008700085E590E0A0E0B0E005C0C86081E490E0CC
:10088000A0E0B0E080938E0090938F00A093900042
:10089000B09391006C2F86E0B3DF86E091DF91E0AA
:1008A0008C1390E0892FCF911F910F910895EF92B3
:1008B000FF920F931F93CF93DF9300D01F92CDB77A
:1008C000DEB7162F4A837B83898378DF89818F7116
:1008D000806224DD082FE12E7B81F72E4A81140FE0
:1008E0001E1529F0F70181917F0118DDF9CF81E014
:1008F0004ADF802F0F900F900F90DF91CF911F91C3
:100900000F91FF90EF9008951F920F920FB60F92E4
:1009100011242F933F938F939F93AF93BF93809115
:100920006D0090916E00A0916F00B09170003091B9
:100930006C0023E0230F2D3720F40196A11DB11D7B
:1009400005C026E8230F0296A11DB11D20936C005F
:1009500080936D0090936E00A0936F00B093700031
:100960008091710090917200A0917300B091740019
:100970000196A11DB11D8093710090937200A09308
:100980007300B0937400BF91AF919F918F913F918D
:100990002F910F900FBE0F901F901895A82FB92F71
:1009A00080E090E041E050EA609530E009C02D9190
:1009B00082279795879510F084279527305EC8F396
:1009C0006F5FA8F30895EADF8D939D930895A6E0E5
:1009D00088279927AA9569F00197E1F38499FCCFBC
:1009E000849BFECF81E09927A0B3019611F0A471FA
:1009F000D9F70895CF93CFB7CF93DF93C395849B57
:100A0000E9F7849B0BC0849B09C0849B07C0849B2F
:100A100005C0849B03C0849B01C08BC06F93C091B1
:100A2000D700DD27C552DF4F2F9365E5849B03C0B8
:100A30002F916F91E6CF0F931F934F9320E040E1EA
:100A40005F9300B3047104FB27F93F9350E03BE050
:100A500039C0147140642F77012F5F5F1EC040685A
:100A600010B314712F7752501FC0406400B32F771A
:100A70000471D1F15F5F00C023C0406210B32F77D3
:100A8000147191F15F5F00C025C0047110275150AF
:100A900012F45D5F0000115027952C3F10B3C8F68B
:100AA00014710127015027952C3FC8F6422749931E
:100AB00000B3047110274F73115027952C3FA8F6EF
:100AC0004695469510B3147179F00127015027958A
:100AD0002C3F98F66B5A60F3315000B3B0F600C06B
:100AE00010E41ABF002719C03B503195C31BD040FA
:100AF00010E41ABF0881033C09F10B34F9F020918E
:100B0000D5001981110F1213EDCF4A81441F093608
:100B100051F10D3211F0013E29F70093DA003F91B7
:100B20005F914F911F910F912F916F91CAB7C6FDA1
:100B300065CFDF91CF91CFBFCF9118952091DA008B
:100B4000222369F31091D800112391F5343092F1EA
:100B50003093D8002093D6001091D7003BE0311B92
:100B60003093D70027C00091D80001300CF50AE57A
:100B70004F7049F43091690034FD1DC00093690045
:100B8000CEEBD0E01CC03091C90034FD14C00093FE
:100B9000C900CAECD0E013C0052710E000C0000077
:100BA00002BB1AC0052710E0221F1DC010E021C0A3
:100BB0004AE502C032ED432FC4E1D0E032E011B388
:100BC0001461949A02B311BB54E120E865E320FF5D
:100BD000052702BB279517951C3FF0F66695B8F7D9
:100BE000B1F720FF052702BB279517951C3FD0F6CC
:100BF0002795179517FF052700001C3F02BBB0F68D
:100C000029913A9519F70B7E1091D900110FC65111
:100C1000D04002BB11F01093D50010E41ABF006160
:100C200011B31B7E402F4B7E54E05A95F1F702BB67
:100C300011BB42BB74CFCF93DF93CDB7DEB72897FC
:100C40000FB6F894DEBF0FBECDBF789483B7826035
:100C500083BF83B7816083BF89B7816089BF1EBCB2
:100C60008EB582608EBD8EB581608EBD8FB5816080
:100C70008FBD85B5846085BD85B5806485BD329A9C
:100C8000319A309A379A1AB80FB6F894A89581B568
:100C9000886181BD11BC0FBE41DD80917E009091C5
:100CA0007F0020918000309181008217930709F026
:100CB00079DA809180009091810020917E003091BE
:100CC0007F002817390709F06DDA1FB7F894809173
:100CD000750081111CC0E1EBF0E08491E5ECF0E0DF
:100CE0009491E82FF0E0EE0FFF1FE356FF4FA59120
:100CF000B491EC91E92319F461E08AE072DA8AE0B8
:100D000051DA6C9A6E9A8DE04DDA8BE04BDA809175
:100D100075008F5F809375001FBF80917E0090915A
:100D20007F0020918000309181008217930711F09D
:100D300060E057DA81E027DDB0DA6CE080E060DD6A
:100D40006FE584E05DDD82E090E07EDD882319F0D0
:100D500081E08093840086E033DD80E090E074DD04
:100D60002DDD80E5DBDA83E7D9DA81E00CDD60E0B8
:100D70008DE146DD60E08CE143DD1092860060E7A6
:100D800087E03EDD6CE485E03BDD18DD82EEC6DA0F
:100D900081E0F9DC2BDD4EDD80E012DD682F6E7F17
:100DA00080E02EDD82E090E04FDD60E081E028DD34
:100DB00081EE898380EF8A838B8388EE8C838D8399
:100DC0001E821F821886E8E8F0E0849140918C0032
:100DD000BE016F5F7F4F6BDDE2E8F0E084916091D0
:100DE00085000EDD82E0ECDCEEE8F0E0E49161E00D
:100DF00070E001C0660FEA95EAF7682B82E000DD3B
:100E000019DD80E0DDDC682F616080E0F9DC60E7FF
:100E100087E0F6DC80917E0090917F002091800039
:100E2000309181008217930711F061E0DAD9809147
:100E30008700882339F040918C0067E870E08AE0F1
:100E400036DD10C082E0BCDCEDE8F0E0E49121E0AA
:100E500030E001C0220FEA95EAF72095622F68235F
:100E600082E0CEDC8DE1ACDC81FDC0DC9CE088E181
:100E70000FB6F894A89581BD0FBE91BD8D9A959A35
:100E800098E0D92E20E0E22E20E0F22E87E198DCD7
:100E900080FD32C010918500183060F108E080912B
:100EA0008600811102C0101B01C010E087DC81E6C2
:100EB00035DA80E6A82E80E0B82E015030F08FEFB2
:100EC0002DDAF50181935F01F8CF112321F08FEF27
:100ED00025DA1150FACF81E056DC60E787E090DC3C
:100EE00011DA60937A0070937B0080937C0090937A
:100EF0007D00CCCF012FD3CF05DA00917A0010917D
:100F00007B0020917C0030917D00DC01CB01801BB7
:100F1000910BA20BB30B89359240A105B10510F0DE
:100F2000FDDB27C0EFD9009176001091770020916A
:100F3000780030917900DC01CB01801B910BA20B72
:100F4000B30B4597A105B105A0F0DCD960937600FD
:100F5000709377008093780090937900E0E6F0E05A
:100F6000A1EBB0E08D2D01900D928A95E1F7DCD9CF
:100F7000AB9AA895E114F10409F488CF41D886CF43
:100F8000F8948D9895982FEF84E39CE02150804051
:100F90009040E1F700C000008D9A959A88E390E0B8
:100FA0009093A3008093A20085E38093A10086E242
:100FB00090E09093A00080939F0082E180939E0038
:100FC00085B7826085BF8BB780648BBFE9ECF0E0AA
:100FD0008BE481838AE58083789494D96093BA0006
:100FE0007093BB008093BC009093BD00EEE7F0E0EF
:100FF00089E090E0918380838AE090E0938382830C
:10100000168280E28783108685E0868785E090E0FF
:10101000A0E0B0E0848B958BA68BB78B11860895EA
:10102000EE0FFF1F0590F491E02D0994FB01DC0108
:1010300004C08D910190801921F441505040C8F7AF
:0A104000881B990B0895F894FFCF68
:0C104A00007F7F7F7F7F0000FF5A0500C1
:00000001FF
