:100000000C9462000C948A000C948A000C948A0070
:100010000C948A000C948A000C948A000C948A0038
:100020000C948A000C948A000C948A000C948A0028
:100030000C948A000C948A000C948A000C948A0018
:100040000C940A030C948A000C94D8020C94B2020B
:100050000C948A000C948A000C948A000C948A00F8
:100060000C948A000C948A000000000025002800EF
:100070002B0000000000240027002A0000000000E0
:1000800023002600290004040404040404040202DA
:100090000202020203030303030301020408102007
:1000A0004080010204081020010204081020000012
:1000B0000008000201000003040700000000000027
:1000C0000000370711241FBECFEFD8E0DEBFCDBF41
:1000D00023E0A8E4B2E001C01D92AE35B207E1F71B
:1000E00012E0A0E0B1E0E4ECFFE002C005900D9268
:1000F000A834B107D9F710E0C2E6D0E004C02197D8
:10010000FE010E946407C136D107C9F70E94670348
:100110000C94E0070C940000CF92DF92EF92FF92D4
:100120000F931F93CF93DF936C017A018B01C0E093
:10013000D0E0CE15DF0589F0D8016D918D01D60193
:10014000ED91FC910190F081E02DC6010995892B7C
:1001500011F47E0102C02196ECCFC701DF91CF914F
:100160001F910F91FF90EF90DF90CF900895FC01C9
:10017000918D828D981761F0828DDF01A80FB11DDE
:100180005D968C91928D9F5F9F73928F90E0089502
:100190008FEF9FEF0895FC01918D828D981731F0BC
:1001A000828DE80FF11D858D90E008958FEF9FEF10
:1001B0000895FC01918D228D892F90E0805C9F4FE6
:1001C000821B91098F739927089589E792E00E9415
:1001D000D90021E0892B09F420E0822F0895FC0149
:1001E000848DDF01A80FB11DA35ABF4F2C91848DC0
:1001F00090E001968F739927848FA689B7892C93F5
:10020000A089B1898C9180648C93938D848D98138F
:1002100006C00288F389E02D80818F7D8083089558
:10022000EF92FF920F931F93CF93DF93EC0181E046
:10023000888F9B8D8C8D981305C0E889F989808102
:1002400085FD24C0F62E0B8D10E00F5F1F4F0F733E
:100250001127E02E8C8DE8120CC00FB607FCFACFE8
:10026000E889F989808185FFF5CFCE010E94EF00F2
:10027000F1CF8B8DFE01E80FF11DE35AFF4FF082A5
:100280000B8FEA89FB898081806207C0EE89FF8934
:100290006083E889F98980818064808381E090E0CF
:1002A000DF91CF911F910F91FF90EF900895CF9321
:1002B000DF93EC01888D8823C9F0EA89FB8980816E
:1002C00085FD05C0A889B9898C9186FD0FC00FB640
:1002D00007FCF5CF808185FFF2CFA889B9898C9181
:1002E00085FFEDCFCE010E94EF00E7CFDF91CF91E8
:1002F000089580E090E0892B29F00E94E5008111AB
:100300000C9400000895CF93DF9390E0FC01E65633
:10031000FF4F2491FC01EA57FF4F8491882361F13C
:1003200090E0880F991FFC01EE58FF4FC591D491C2
:10033000FC01E859FF4FA591B491611109C09FB725
:10034000F8948881209582238883EC912E230BC01A
:10035000623061F49FB7F8943881822F80958323AF
:100360008883EC912E2B2C939FBF06C08FB7F894F7
:10037000E8812E2B28838FBFDF91CF9108953FB75F
:10038000F89480914A0290914B02A0914C02B09156
:100390004D0226B5A89B05C02F3F19F00196A11D5F
:1003A000B11D3FBFBA2FA92F982F8827820F911D0B
:1003B000A11DB11DBC01CD0143E0660F771F881F51
:1003C000991F4A95D1F708958F929F92AF92BF924D
:1003D000CF92DF92EF92FF926B017C010E94BF01EE
:1003E0004B015C01C114D104E104F104F1F00E945D
:1003F000BF01DC01CB0188199909AA09BB09883E14
:100400009340A105B10570F321E0C21AD108E108BB
:10041000F10888EE880E83E0981EA11CB11CC1145F
:10042000D104E104F10419F7DDCFFF90EF90DF90E4
:10043000CF90BF90AF909F908F900895CF9360E042
:100440008BE00E94830188E0C0E0CC0F1B99C16063
:100450002C9A00002C9800008150B9F761E08BE0E5
:100460000E9483018C2FCF9108952C982B9899E0AE
:10047000915051F087FF02C02B9A01C02B982C9A03
:1004800000002C98880FF4CF2B9A08952D980E9485
:1004900035022D9A08952D9880640E9435020E949D
:1004A0001E022D9A0895CF93DF931F92CDB7DEB72A
:1004B0002D9869830E94350200006981862F0E9471
:1004C00035022D9A0F90DF91CF9108951F93CF930E
:1004D000DF932D9885E40E943502C1E2D3E01C2F02
:1004E0001B5E0E941E0289931C13FBCF2D9ADF9185
:1004F000CF911F9108950F931F93CF93DF931F9276
:10050000CDB7DEB700914E0210E060914F026095CA
:1005100080915002F80190E1899FE00DF11D1124B6
:10052000EB5FFE4F8081680F6093480280EA698329
:100530000E94460280EF0E94460269818FE00E947D
:10054000530280EC0E9446020F5F1F4F0F7011276D
:1005500000934E020F90DF91CF911F910F9108955C
:100560000E946A071F920F920FB60F9211242F93C9
:100570003F934F935F936F937F938F939F93AF932B
:10058000BF93EF93FF9389E792E00E94EF00FF9102
:10059000EF91BF91AF919F918F917F916F915F91FB
:1005A0004F913F912F910F900FBE0F901F90189574
:1005B0001F920F920FB60F9211242F938F939F9338
:1005C000EF93FF93E0918902F0918A028081E0919C
:1005D0008F02F091900282FD12C090818091920270
:1005E0008F5F8F7320919302821751F0E0919202F6
:1005F000F0E0E758FD4F958F8093920201C0808113
:10060000FF91EF919F918F912F910F900FBE0F90BF
:100610001F9018951F920F920FB60F9211242F93CF
:100620003F938F939F93AF93BF9380915602909186
:100630005702A0915802B09159023091490226E028
:10064000230F2D3720F40296A11DB11D05C029E806
:10065000230F0396A11DB11D2093490280935602DA
:1006600090935702A0935802B093590280914A0286
:1006700090914B02A0914C02B0914D020196A11DA8
:10068000B11D80934A0290934B02A0934C02B09309
:100690004D02BF91AF919F918F913F912F910F90FC
:1006A0000FBE0F901F90189586E480937C00809178
:1006B0007A00806480937A0080917A0086FDFCCF76
:1006C000809178002091790090E0922B08957894A1
:1006D00084B5826084BD84B5816084BD85B5826047
:1006E00085BD85B5816085BD80916E0081608093F8
:1006F0006E00109281008091810082608093810061
:100700008091810081608093810080918000816070
:10071000809380008091B10084608093B1008091CB
:10072000B00081608093B00080917A0084608093F3
:100730007A0080917A00826080937A0080917A00BA
:100740008E7F80937A0080917A00806880937A000F
:100750001092C100E0918902F0918A0282E08083C8
:10076000E0918502F09186021082E0918702F0917B
:10077000880289E0808310929102E0918D02F091CD
:100780008E028EE28083E0918B02F0918C02808158
:1007900080618083E0918B02F0918C02808188607F
:1007A0008083E0918B02F0918C028081806880834D
:1007B000E0918B02F0918C0280818F7D808380E0BC
:1007C00094E090933703809336039093390380939A
:1007D000380328EC30E030933B0320933A039093A6
:1007E0003D0380933C0390933F0380933E0390939B
:1007F000410380934003909343038093420390937B
:1008000045038093440328EF37E030934703209358
:100810004603909349038093480390934B0380933E
:100820004A0390934D0380934C0390934F0380931E
:100830004E039093510380935003909353038093FE
:1008400052039093550380935403109257031092D0
:100850005603109259031092580310925A021092A4
:100860005B0261E081E10E94830160E08AE00E9416
:10087000830161E08BE00E94830161E08CE00E94D3
:10088000830161E08DE00E9483012D9A2B9A2C98C0
:100890006AE070E080E090E00E94E40160E080E0C7
:1008A0000E9453022D9886E00E94350284E50E9442
:1008B000350285E70E94350285EC0E9435028AE206
:1008C0000E9435022D9A05E112E0C0E0F801619125
:1008D0008F016F3F19F08C2F0E945302CF5FC333FB
:1008E000A9F780EA0E94460261E082E00E9453027A
:1008F00082E00E944B028111FBCF82E20E944B02F8
:1009000063E184E20E94530269E085E20E9453029F
:1009100080EA0E94460262E089E00E948301E7EBE0
:10092000F0E08491E3EAF0E09491EFE8F0E0E49104
:10093000EE2309F49AC2882339F1833091F038F418
:100940008130A9F0823001F584B58F7D12C08730E7
:1009500091F08830A1F08430B9F4809180008F7DCF
:1009600003C0809180008F77809380000DC084B594
:100970008F7784BD09C08091B0008F7703C08091CC
:10098000B0008F7D8093B000F0E0EE0FFF1FE458C1
:10099000FF4FA591B491EC91E92309F466C261E09F
:1009A00089E00E94830180E080935502439A64EFBE
:1009B00071E080E090E00E94E401439864EF71E010
:1009C00080E090E00E94E40180915502811114C002
:1009D0008AE090E00E946F078A3A41F7CBE0D0E0CE
:1009E000CE010E946F07FE01EE5EFC4F80832196D0
:1009F000CF30D105A9F75AC080EA0E94460280EFA5
:100A00000E94460260E08FE00E94530280EC0E9448
:100A10004602DFEFC0910001CC2369F16AE070E08B
:100A200080E090E00E94E401C2FD439A80910001C1
:100A300082FF43981A992FC080E00E944B0285FDE7
:100A40001CC00E94660201E213E0FCE1EF2EF3E01D
:100A5000FF2ECAE0D0E06801F80161918F01CE015C
:100A60000E947707F6018081F70181937F0121962B
:100A7000CF30D10581F7439A18C080EA0E94460220
:100A800080EF0E94460260E08FE00E94530280ECFB
:100A90000E944602BFCF80910001815080930001E7
:100AA0008111B8CFD0930001B5CFFFCF20911E03A5
:100AB00080911F0390E0A0E0B0E0DC019927882737
:100AC000922B20911D03822B20912003B22B809327
:100AD000510290935202A0935302B0935402282FD4
:100AE0002F70209350029927AA27BB27E4E0B695E0
:100AF000A79597958795EA95D1F780934F02109225
:100B00004E020A97A105B10518F089E080934F02C3
:100B100040E2642E712C0AE010E058EE852E53E07E
:100B2000952EA12CB12C61EDC62ED12CE12CF12CEF
:100B300080915C0390915D038132910530F0CD97F7
:100B400030F070925D0360925C030E947B020E9411
:100B5000BF011B012C0180915A0390915B038139E5
:100B6000914008F50E94BF01DC01CB018219930975
:100B7000A409B5098C389540A105B10508F1439841
:100B800080915A0390915B03019690935B0380934D
:100B90005A0380915C0390915D03019690935D03ED
:100BA00080935C035FC110925B0310925A03E6E3EB
:100BB000F3E00193119343E0E634F407D1F7D2CF89
:100BC0001A99C9CF80E00E944B0285FDC4CF0E94D4
:100BD00066029091220380911D039813BCCF9091DF
:100BE000230380911E039813B6CF90912403809124
:100BF0001F039813B0CF9091250380912003981381
:100C0000AACF439A10925B0310925A0310925D038D
:100C100010925C03C0E0D0E0F894FE01EF5DFC4F61
:100C20002581868190E0982F8827820F911D9093CF
:100C30001B0380931A03789420911A0330911B03AD
:100C4000C9018152934087379540E0F4C901A0E083
:100C5000B0E09C01AD01285E334041095109A0E498
:100C6000B6E00E94A407A50194010E948507DA015D
:100C7000C90188539F4FAF4FBF4FFE01EA5CFC4F45
:100C8000918380832296C031D10531F60E945403AE
:100C9000C0914603D0914703092E000CAA0BBB0B51
:100CA0009C01AD01335041095109A0E4B6E00E9416
:100CB000A407A70196010E948507BA01A90148531C
:100CC0005F4F6F4F7F4FCE01A0E0B0E0481759074C
:100CD0006A077B07D4F40E945403092E000CAA0B68
:100CE000BB0B9C01AD01335041095109A0E4B6E0B2
:100CF0000E94A407A70196010E948507DA01C90195
:100D000088539F4FAF4FBF4FEC01D0934703C09321
:100D100046032FB7F8948091560290915702A09104
:100D20005802B09159022FBF4091160350911703FA
:100D30006091180370911903841B950BA60BB70BD8
:100D40000897A105B10508F48DC02FB7F8948091DC
:100D5000560290915702A0915802B09159022FBFAC
:100D60008093160390931703A0931803B09319036D
:100D700080E0E82FF0E0E05AFD4F10828F5F89316C
:100D8000C1F78FE08093600240E061E080915C02F7
:100D900050E0503159F120E030E0E52FF0E0EE0F67
:100DA000FF1FEA5CFC4F483010F06F5F40E0A62F59
:100DB000B0E0A05ABD4F80819181022E02C096956D
:100DC00087950A94E2F781709927042E01C0880F55
:100DD0000A94EAF79C91892B8C934F5F2F5F3F4FCA
:100DE0002B30310501F75F5F8BE0D3CF40935E027C
:100DF00060935F0280935C0250935D028091560382
:100E0000909157038115944028F08091770281607A
:100E100080937702809158039091590381159440F3
:100E200028F08091770282608093770280915B0244
:100E3000882329F0809177028460809377028091E3
:100E40005A02882329F08091770288608093770284
:100E50001092780249E150E060E672E089E792E0A2
:100E60000E948C000E94790163CE81E09DCDE9E76C
:100E7000F2E01382128288EE93E0A0E0B0E0848377
:100E80009583A683B78389E092E09183808385EC84
:100E900090E09587848784EC90E09787868780EC44
:100EA00090E0918B808B81EC90E0938B828B82EC35
:100EB00090E0958B848B86EC90E0978B868B118EDF
:100EC000128E138E148E0895EE0FFF1F0590F4916D
:100ED000E02D099481E090E0F8940C94E007F999F2
:100EE000FECF92BD81BDF89A992780B50895262F2F
:100EF000F999FECF1FBA92BD81BD20BD0FB6F894FF
:100F0000FA9AF99A0FBE01960895052E97FB1EF4E2
:100F100000940E949C0757FD07D00E94AF0707FC72
:100F200003D04EF40C949C07509540953095219534
:100F30003F4F4F4F5F4F0895909580957095619505
:100F40007F4F8F4F9F4F08950E94D107A59F900D0F
:100F5000B49F900DA49F800D911D11240895A1E2CE
:100F60001A2EAA1BBB1BFD010DC0AA1FBB1FEE1F23
:100F7000FF1FA217B307E407F50720F0A21BB30B6E
:100F8000E40BF50B661F771F881F991F1A9469F7EA
:100F900060957095809590959B01AC01BD01CF0146
:100FA0000895A29FB001B39FC001A39F700D811D42
:100FB0001124911DB29F700D811D1124911D089562
:040FC000F894FFCFD3
:100FC400FF010000000A5A14641E6E287832823C25
:100FD4008C469650A0A05096468C3C823278286E5F
:100FE4001E64145A0A0A5A50A0146446961E6E3C93
:100FF4008C28783282823278288C3C6E1E96466425
:1010040014A0505A0A28780A5A50A014641E6E3C40
:101014008C32824696964682328C3C6E1E6414A0B4
:10102400505A0A782850A028780A5A1E6E3C8C32EE
:1010340082469614646414964682328C3C6E1E5A20
:101044000A7828A05050A046963C8C28780A5A3238
:10105400821E6E146464146E1E82325A0A78288CBE
:101064003C9646A05046963C8C50A028780A5A1EBE
:101074006E32821464641482326E1E5A0A7828A076
:10108400508C3C964646960A5A3C8C146450A028D0
:10109400781E6E328282326E1E7828A05064148CC0
:1010A4003C5A0A964646960A5A50A03C8C28781E0A
:1010B4006E32821464641482326E1E78288C3CA0D2
:1010C400505A0A96460000000010018C00D900B75F
:1010D40000CB005701FF42001400FFFF0000000096
:1010E40001210500509E4B0002162B1200628080E5
:1010F400000A32C30F13C300FF00003B00174780F0
:081104000301451800010FFF73
:00000001FF
