:100000000C9461000C947E000C947E000C947E0095
:100010000C947E000C947E000C947E000C947E0068
:100020000C947E000C947E000C947E000C942002B4
:100030000C947E000C947E000C947E000C947E0048
:100040000C94D6010C947E000C947E000C947E00DF
:100050000C947E000C947E000C947E000C947E0028
:100060000C947E000C947E00000000002400270009
:100070002A000000000023002600290000000000E4
:10008000250028002B0004040404040404040202D4
:100090000202020203030303030301020408102007
:1000A0004080010204081020010204081020000012
:1000B0000008000201000003040700000000000027
:1000C000000011241FBECFEFD8E0DEBFCDBF12E08D
:1000D000A0E0B1E0ECE6FAE002C005900D92AA348F
:1000E000B107D9F722E0AAE4B2E001C01D92A0391D
:1000F000B207E1F70E94A0020C9434050C940000B2
:10010000833081F028F4813099F08230A1F0089595
:100110008730A9F08830B9F08430D1F48091800024
:100120008F7D03C0809180008F7780938000089539
:1001300084B58F7702C084B58F7D84BD089580918A
:10014000B0008F7703C08091B0008F7D8093B000A6
:100150000895CF93DF9390E0FC01E656FF4F249182
:10016000FC01EA57FF4F8491882361F190E0880FEA
:10017000991FFC01E859FF4FC591D491FC01E45847
:10018000FF4FA591B491611109C09FB7F894888180
:10019000209582238883EC912E230BC0623061F47A
:1001A0009FB7F8943881822F809583238883EC91C0
:1001B0002E2B2C939FBF06C08FB7F894E8812E2B6F
:1001C00028838FBFDF91CF9108953FB7F894809136
:1001D000530290915402A0915502B091560226B557
:1001E000A89B05C02F3F19F00196A11DB11D3FBF6F
:1001F000BA2FA92F982F8827820F911DA11DB11DFD
:10020000BC01CD0143E0660F771F881F991F4A95F7
:10021000D1F708958F929F92AF92BF92CF92DF92C3
:10022000EF92FF926B017C010E94E5004B015C01A3
:10023000C114D104E104F104F1F00E94E500DC01F5
:10024000CB0188199909AA09BB09883E9340A105E9
:10025000B10570F321E0C21AD108E108F10888EE77
:10026000880E83E0981EA11CB11CC114D104E104C6
:10027000F10419F7DDCFFF90EF90DF90CF90BF90A2
:10028000AF909F908F900895CF9360E08BE00E9495
:10029000A90088E0C0E0CC0F1B99C1602C9A000037
:1002A0002C9800008150B9F761E08BE00E94A90012
:1002B0008C2FCF9108952C982B9899E0915051F064
:1002C00087FF02C02B9A01C02B982C9A00002C9813
:1002D000880FF4CF2B9A08952D980E945B012D9AD8
:1002E00008952D9880640E945B010E9444012D9A1C
:1002F0000895CF93DF931F92CDB7DEB72D98698312
:100300000E945B0100006981862F0E945B012D9A8B
:100310000F90DF91CF9108951F93CF93DF932D9886
:1003200085E40E945B01C7E6D2E01C2F1B5E0E94A1
:10033000440189931C13FBCF2D9ADF91CF911F911C
:1003400008950F931F93CF93DF931F92CDB7DEB71E
:100350000091580210E060915902609580915A0214
:10036000F80190E1899FE00DF11D1124EA5EFE4F36
:100370008081680F60934A0280EA69830E946C0161
:1003800080EF0E946C0169818FE00E94790180EC0E
:100390000E946C010F5F1F4F0F70112700935802CE
:1003A0000F90DF91CF911F910F9108951F920F929F
:1003B0000FB60F9211242F933F938F939F93AF9378
:1003C000BF9380914F0290915002A0915102B09141
:1003D000520230914E0226E0230F2D3720F4029670
:1003E000A11DB11D05C029E8230F0396A11DB11D54
:1003F00020934E0280934F0290935002A09351029B
:10040000B09352028091530290915402A0915502F0
:10041000B09156020196A11DB11D80935302909395
:100420005402A0935502B0935602BF91AF919F9191
:100430008F913F912F910F900FBE0F901F901895A5
:100440001F920F920FB60F9211242F933F934F9349
:100450005F938F939F93EF93FF9310928500109279
:10046000840080910001882389F05A9840915702B6
:100470002CE231E0429FC001439F900D11249093E4
:10048000890080938800109200014DC05A9A81E043
:100490008093000180914D02883008F110924D0246
:1004A00020914B0230914C02C901845D9E4F909384
:1004B0004C0280934B024091570288EB96E5821BD9
:1004C000930B489F9001499F300D11243093890070
:1004D0002093880010924C0210924B0224C0E82F07
:1004E000F0E090915702EE0FFF1FE458FD4F20817E
:1004F00031812C523140929FA001939F500D1124C5
:10050000509389004093880040914B0250914C02D7
:1005100020813181240F351F30934C0220934B02F0
:100520008F5F80934D02FF91EF919F918F915F912B
:100530004F913F912F910F900FBE0F901F901895E4
:10054000789484B5826084BD84B5816084BD85B5AE
:10055000826085BD85B5816085BD80916E008160BA
:1005600080936E0010928100809181008260809360
:100570008100809181008160809381008091800062
:100580008160809380008091B10084608093B1008D
:100590008091B00081608093B00080917A00846087
:1005A00080937A0080917A00826080937A008091B3
:1005B0007A008E7F80937A0080917A0080688093A1
:1005C0007A001092C10061E081E10E94A90060E020
:1005D0008AE00E94A90061E08BE00E94A90061E02E
:1005E0008CE00E94A90061E08DE00E94A9002D9A94
:1005F0002B9A2C986AE070E080E090E00E940A015B
:1006000060E080E00E9479012D9886E00E945B0105
:1006100084E50E945B0185E70E945B0185EC0E94F6
:100620005B018AE20E945B012D9A06E112E0C0E0C4
:10063000D8016D918D016F3F19F08C2F0E947901C7
:10064000CF5FC333A9F780EA0E946C0161E082E0CA
:100650000E94790182E00E9471018111FBCF82E248
:100660000E94710163E184E20E94790169E085E200
:100670000E94790180EA0E946C0162E089E00E9498
:10068000A900E7EBF0E08491E3EAF0E0D491EFE831
:10069000F0E0C491CC2309F4CFC181110E94800005
:1006A000EC2FF0E0EE0FFF1FEE58FF4FA591B49135
:1006B000EC91ED2309F4C0C161E089E00E94A9003A
:1006C00080E080935F02439A64EF71E080E090E005
:1006D0000E940A01439864EF71E080E090E00E947C
:1006E0000A0180915F02811114C08AE090E00E94AB
:1006F0001E058A3A41F7CBE0D0E0CE010E941E05EC
:10070000FE01E85AFD4F80832196CF30D105A9F72D
:100710005AC080EA0E946C0180EF0E946C0160E088
:100720008FE00E94790180EC0E946C01DFEFC091A4
:100730000101CC2369F16AE070E080E090E00E9462
:100740000A01C2FD439A8091010182FF43981A99E0
:100750002FC080E00E94710185FD1CC00E948C01A9
:1007600007E612E082E6E82E82E0F82ECAE0D0E04A
:100770005801F80161918F01CE010E942605D50133
:100780008C91F70181937F012196CF30D10581F7BC
:10079000439A18C080EA0E946C0180EF0E946C01AD
:1007A00060E08FE00E94790180EC0E946C01BFCF75
:1007B000809101018150809301018111B8CFD093C4
:1007C0000101B5CFFFCF209164028091650290E0D6
:1007D000A0E0B0E0DC0199278827922B20916302EA
:1007E000822B20916602B22B80935B0290935C0275
:1007F000A0935D02B0935E02282F2F7020935A02BF
:100800009927AA27BB27D4E0B695A79597958795F2
:10081000DA95D1F780935902109258020A97A105F0
:10082000B10518F089E08093590281E08093570266
:10083000ACE7B2E0E2E0F1E0819191918D939D937C
:1008400021E0E231F207C1F761E082E00E94A900F5
:10085000E0EBF0E08491ECE9F0E0D491E8E8F0E03E
:10086000C491CC2399F081110E948000EC2FF0E01C
:10087000EE0FFF1FE458FF4FA591B4918FB7F89486
:100880009C91ED2FE095E923EC938FBF8091570267
:1008900062E3869FC00111249093890080938800B1
:1008A000F8941092800010928100809181008860FD
:1008B000809381008091810082608093810080918B
:1008C0006F00826080936F007894C2E5D3E070E29D
:1008D000E72EF12C00E010E080918E0290918F02C3
:1008E0008132910530F0CD9730F0F0928F02E09296
:1008F0008E020E94A1010E94E5004B015C018091E3
:100900008C0290918D028139914008F50E94E5009A
:10091000DC01CB0188199909AA09BB098C389540DB
:10092000A105B10528F1439880918C0290918D0228
:10093000019690938D0280938C0280918E0290910B
:100940008F02019690938F0280938E026EC0109258
:100950008D0210928C02ACE7B2E0E2E0F1E0C193CC
:10096000D193CD93DD9321E0E231F207C1F7CECFF1
:100970001A99C5CF80E00E94710185FDC0CF0E9409
:100980008C0190916802809163029813B8CF909186
:100990006902809164029813B2CF90916A028091AB
:1009A00065029813ACCF90916B0280916602981308
:1009B000A6CF439A10928D0210928C0210928F0251
:1009C00010928E026CE7A62E62E0B62EE2E0F1E015
:1009D00020E030E0F894C90189599D4FDC0115965B
:1009E0004C91159716968C9190E0982F8827840F3C
:1009F000911D9093610280936002789480916002CF
:100A000090916102AC01415253404737554010F478
:100A10009183808381919191D5018D939D935D0107
:100A20002E5F3F4F20313105A9F60115110509F45C
:100A300053CF0E9400004BCF81E043CEF999FECF07
:100A400092BD81BDF89A992780B50895262FF9990E
:100A5000FECF1FBA92BD81BD20BD0FB6F894FA9AA1
:0C0A6000F99A0FBE01960895F894FFCF9C
:100A6C0001FFDC05DC05E803DC05DC05DC05E8033F
:100A7C00E803000000000A5A14641E6E28783282C3
:100A8C003C8C469650A0A05096468C3C82327828DE
:100A9C006E1E64145A0A0A5A50A0146446961E6EAE
:100AAC003C8C28783282823278288C3C6E1E96469A
:100ABC006414A0505A0A28780A5A50A014641E6E66
:100ACC003C8C32824696964682328C3C6E1E641466
:100ADC00A0505A0A782850A028780A5A1E6E3C8CCE
:100AEC003282469614646414964682328C3C6E1E96
:100AFC005A0A7828A05050A046963C8C28780A5A5E
:100B0C0032821E6E146464146E1E82325A0A782865
:100B1C008C3C9646A05046963C8C50A028780A5A9D
:100B2C001E6E32821464641482326E1E5A0A782845
:100B3C00A0508C3C964646960A5A3C8C146450A0A5
:100B4C0028781E6E328282326E1E7828A050641471
:100B5C008C3C5A0A964646960A5A50A03C8C2878E9
:100B6C001E6E32821464641482326E1E78288C3CA1
:100B7C00A0505A0A9646FF42001400FFFF000000E6
:100B8C000001210500509E4B0002162B12006280C2
:100B9C0080000A32C30F13C300FF00003B0017474D
:0A0BAC00800301451800010FFF004F
:00000001FF
