:10000000A2C029C4C5C0C4C0C3C0C2C0C1C0C0C092
:10001000BFC071C2BDC0D5C1AFC1BAC0B9C0B8C040
:10002000B7C0B6C0B5C02003640072006F006E0098
:1000300065006600690078002E00720075003A00C5
:1000400052005200580016035200610069006E0011
:1000500062006F007700200052005800180364000F
:1000600072006F006E0065006600690078002E0067
:1000700072007500040309040902220001010080D6
:100080003209040000010300000009210101000100
:100090002235000705810308000A12011001000043
:1000A0000008C016DC270001010203010000000067
:1000B0000000000000030406000000000000000033
:1000C000000000003800350032000000000037005A
:1000D0003400310004040404040404040202020293
:1000E00002020303030303030102040810204080FB
:1000F000010204081020010204081020120101016D
:1001000000000008C016DC27000101020001050103
:100110000905A1010901A1000501093009310933CF
:10012000093409350936150026FF00750895068142
:1001300002C0050919012910150025017501951046
:100140008102C0008E0B11241FBECFE5D4E0DEBFBC
:10015000CDBF22E0A4EEB0E001C01D92A633B207ED
:10016000E1F710E0A0E6B0E0E4EFF9E102C00590AD
:100170000D92A43EB107D9F710E0C3EAD0E003C066
:100180002197FE016DDBC23AD107D1F785D430CC7F
:1001900037CFCF92DF92EF92FF920F931F93CF93BF
:1001A000DF936C017A018B01C0E0D0E0CE15DF0552
:1001B00089F0D8016D918D01D601ED91FC910190EE
:1001C000F081E02DC6010995892B11F47E0102C052
:1001D0002196ECCFC701DF91CF911F910F91FF9036
:1001E000EF90DF90CF900895FC01918D828D98174C
:1001F00061F0828DDF01A80FB11D5D968C91928D0B
:100200009F5F9F73928F90E008958FEF9FEF089507
:10021000FC01918D828D981731F0828DE80FF11DD0
:10022000858D90E008958FEF9FEF0895FC01918DEB
:10023000228D892F90E0805C9F4F821B91098F73E4
:100240009927089582E291E0F1DF21E0892B09F4FA
:1002500020E0822F0895FC01848DDF01A80FB11DDD
:10026000A35ABF4F2C91848D90E001968F739927EC
:10027000848FA689B7892C93A089B1898C918064D9
:100280008C93938D848D981306C00288F389E02D9A
:1002900080818F7D80830895EF92FF920F931F934B
:1002A000CF93DF93EC0181E0888F9B8D8C8D981329
:1002B00005C0E889F989808185FD23C0F62E0B8D64
:1002C00010E00F5F1F4F0F731127E02E8C8DE81287
:1002D0000BC00FB607FCFACFE889F989808185FF4A
:1002E000F5CFCE01B8DFF2CF8B8DFE01E80FF11D07
:1002F000E35AFF4FF0820B8FEA89FB89808180628D
:1003000007C0EE89FF896083E889F989808180646C
:10031000808381E090E0DF91CF911F910F91FF905A
:10032000EF900895CF93DF93EC01888D8823C1F07F
:10033000EA89FB89808185FD05C0A889B9898C91EE
:1003400086FD0EC00FB607FCF5CF808185FFF2CF8A
:10035000A889B9898C9185FFEDCFCE017CDFE8CFEC
:10036000DF91CF91089580E090E0892B19F06ADF4A
:10037000811146CE08957ADA1F920F920FB60F922E
:1003800011242F933F934F935F936F937F938F939A
:100390009F93AF93BF93EF93FF9382E291E05BDF74
:1003A000FF91EF91BF91AF919F918F917F916F914D
:1003B0005F914F913F912F910F900FBE0F901F9023
:1003C00018951F920F920FB60F9211242F938F93AF
:1003D0009F93EF93FF93E0913201F091330180817D
:1003E000E0913801F091390182FD12C09081809135
:1003F0003B018F5F8F7320913C01821751F0E09198
:100400003B01F0E0EE5DFE4F958F80933B0101C014
:100410008081FF91EF919F918F912F910F900FBE4F
:100420000F901F90189590E0FC01E455FF4F349118
:10043000FC01E851FF4F2491FC01EC52FF4FE49185
:10044000EE2331F1332381F0343039F0363049F086
:10045000333051F48FB58F7702C08FB58F7D8FBD4C
:1004600003C085B58F7D85BDF0E0EE0FFF1FE05422
:10047000FF4FA591B4918FB7F894611105C09C917D
:10048000E22FE095E92302C0EC91E22BEC938FBFC1
:1004900008953FB7F89480911E0190911F01A0919B
:1004A0002001B091210122B708B600FE05C02F3F00
:1004B00019F00196A11DB11D3FBFBA2FA92F982F8A
:1004C0008827820F911DA11DB11DBC01CD0142E005
:1004D000660F771F881F991F4A95D1F708952FB788
:1004E000F89460911A0170911B0180911C01909108
:1004F0001D012FBF08951F920F920FB60F92112466
:100500002F933F938F939F93AF93BF9380911A0143
:1005100090911B01A0911C01B0911D013091190116
:1005200023E0230F2D3720F40196A11DB11D05C036
:1005300026E8230F0296A11DB11D20931901809377
:100540001A0190931B01A0931C01B0931D0180918F
:100550001E0190911F01A0912001B09121010196EF
:10056000A11DB11D80931E0190931F01A093200136
:10057000B0932101BF91AF919F918F913F912F91A6
:100580000F900FBE0F901F90189561E04CCF8FB960
:100590000000779BFECF8FB108951F93CF93DF9319
:1005A000EC0160E089813FDF87E0F1DF8FEFEFDF73
:1005B000182F8981EADF16FB882780F9DF91CF9118
:1005C0001F9108951F93CF93DF93EC0160E0898121
:1005D0002ADF87E1DCDF8FEFDADF182F8981D5DFB3
:1005E000812F8170DF91CF911F910895FF920F931A
:1005F0001F93CF93DF931F92CDB7DEB78C01F62EFA
:1006000060E0FC01818149830EDF8F2D8F71806254
:10061000BEDFF82E4981842FBADFF8018181B5DF72
:100620008F2D0F90DF91CF911F910F91FF90089523
:1006300090E0FC01E851FF4F2491FC01EC52FF4F88
:100640008491882399F090E0880F991FFC01E6536C
:10065000FF4FA591B491FC01E054FF4F8591949117
:100660008FB7F894EC91E22BEC938FBF0895AF9283
:10067000BF92CF92DF92EF92FF920F931F93CF938F
:10068000DF931F92CDB7DEB77C01C62EFC018281BD
:10069000A82E813110F090E1A92EB82EBA1860E092
:1006A000F70181817983BFDE81E671DFD82E0C2DC1
:1006B0007981172FAA94FFEFAF1631F08FEF67DF24
:1006C000F80181938F01F6CFBB2021F08FEF5FDF20
:1006D000BA94FACFF701818158DF8D2D0F90DF9109
:1006E000CF911F910F91FF90EF90DF90CF90BF902F
:1006F000AF900895009761F0FC0101900020E9F7A8
:100700003197AF01481B590BBC0182E291E041CD0A
:1007100080E090E008958F929F92AF92BF920F93E6
:100720001F93CF93DF93CDB7DEB7A1970FB6F894A1
:10073000DEBF0FBECDBF19A2423008F44AE08E01E1
:100740000F5D1F4F842E912CA12CB12CA50194017B
:1007500021D9E62FB901CA0101501109EA3014F478
:10076000E05D01C0E95CD801EC93232B242B252B01
:1007700069F7C801BFDFA1960FB6F894DEBF0FBEC0
:10078000CDBFDF91CF911F910F91BF90AF909F9000
:100790008F900895AFCFCF92DF92EF92FF92CF93D9
:1007A000DF936C01990FEE08FF08F7FE1EC0E09181
:1007B0002201F09123010190F081E02D6DE282E2AF
:1007C00091E00995EC0166277727CB016C197D092B
:1007D0008E099F094AE09FDF8C0F9D1FDF91CF910B
:1007E000FF90EF90DF90CF9008954AE0C701B601E7
:1007F000DF91CF91FF90EF90DF90CF908CCFA82F1B
:10080000B92F80E090E041E050EA609530E009C007
:100810002D9182279795879510F084279527305E34
:10082000C8F36F5FA8F30895EADF8D939D93089551
:10083000A6E088279927AA9569F00197E1F38499A2
:10084000FCCF849BFECF81E09927A0B3019611F0E5
:10085000A471D9F70895CF93CFB7CF93DF93C39502
:10086000849BE9F7849B0BC0849B09C0849B07C0D1
:10087000849B05C0849B03C0849B01C08BC06F9385
:10088000C0911002DD27CD5EDD4F2F9365E5849B7F
:1008900003C02F916F91E6CF0F931F934F9320E0EA
:1008A00040E15F9300B3047104FB27F93F9350E0EC
:1008B0003BE039C0147140642F77012F5F5F1EC089
:1008C000406810B314712F7752501FC0406400B3BA
:1008D0002F770471D1F15F5F00C023C0406210B375
:1008E0002F77147191F15F5F00C025C0047110274C
:1008F000515012F45D5F0000115027952C3F10B34A
:10090000C8F614710127015027952C3FC8F64227DD
:10091000499300B3047110274F73115027952C3F52
:10092000A8F64695469510B3147179F00127015049
:1009300027952C3F98F66B5A60F3315000B3B0F610
:1009400000C010E41ABF002719C03B503195C31BEB
:10095000D04010E41ABF0881033C09F10B34F9F0D0
:1009600020910E021981110F1213EDCF4A81441FFD
:10097000093651F10D3211F0013E29F70093290299
:100980003F915F914F911F910F912F916F91CAB736
:10099000C6FD65CFDF91CF91CFBFCF911895209144
:1009A0002902222369F310911102112391F53430A9
:1009B00092F13093110220930F02109110023BE04C
:1009C000311B3093100227C00091110201300CF549
:1009D0000AE54F7049F43091610034FD1DC0009369
:1009E0006100C3E0D2E01CC030912A0234FD14C083
:1009F00000932A02CBE2D2E013C0052710E000C02A
:100A0000000002BB1AC0052710E0221F1DC010E025
:100A100021C04AE502C032ED432FC4E1D0E032E00C
:100A200011B31461949A02B311BB54E120E865E359
:100A300020FF052702BB279517951C3FF0F666950A
:100A4000B8F7B1F720FF052702BB279517951C3F84
:100A5000D0F62795179517FF052700001C3F02BB0E
:100A6000B0F629913A9519F70B7E10911202110FE9
:100A7000C651D04002BB11F010930E0210E41ABF11
:100A8000006111B31B7E402F4B7E54E05A95F1F765
:100A900002BB11BB42BB74CF789483B7826083BF23
:100AA00083B7816083BF89B7816089BF1EBC8EB563
:100AB00082608EBD8EB581608EBD8FB581608FBD29
:100AC00085B5846085BD85B5806485BD329A319ACF
:100AD000309A379A1AB88AE0ABDDE0913201F09192
:100AE000330182E08083E0912E01F0912F0110828A
:100AF000E0913001F091310180E1808310923A0160
:100B0000E0913601F091370186E88083E09134016D
:100B1000F0913501808180618083E0913401F09112
:100B20003501808188608083E0913401F091350146
:100B3000808180688083E0913401F091350180816B
:100B40008F7D808389E08093FF018AE0809300029B
:100B500089E06EDD809100026BDD60E08091FF0135
:100B600062DC8091000211DD8FEF91E09093D20161
:100B70008093D101CFB7F8948091E40081111CC01B
:100B8000EEEDF0E08491E2EFF0E09491E82FF0E0F8
:100B9000EE0FFF1FE653FF4FA591B491EC91E923AF
:100BA00019F461E08AE03FDC8AE042DD6C9A6E9ADB
:100BB0008DE03EDD8BE03CDD8091E4008F5F809333
:100BC000E400CFBF80E1809301028DB1837F8DB9B6
:100BD0008DB18C7F8DB9709A0BE811E0C801019737
:100BE000F1F7F090BF01C091D101D091D20160E046
:100BF000888119DC4CE060E0CE01F8DCC801019787
:100C0000F1F740E061E0CE01F1DC41E062E0CE01CD
:100C1000EDDC43E063E0CE01E9DC4FEF64E0CE01C0
:100C2000E5DC4F2D65E0CE01E1DC45E066E0CE017C
:100C3000DDDC40E767E0CE01D9DC40E161E1CE01D7
:100C4000D5DC40E067E1CE01D1DC60E08981EBDBFF
:100C50008AE29DDC0FEB10E075E0F72EF00EF01647
:100C600029F0F80181918F0192DCF9CF89818DDC27
:100C700010DC4B015C0162E3C62ED12CE12CF12C7F
:100C800008DCDC01CB0188199909AA09BB09883E57
:100C90009340A105B10558F0F1E0CF1AD108E10861
:100CA000F10828EE820E23E0921EA11CB11CC11493
:100CB000D104E104F10421F760E08981B4DB81EE25
:100CC00066DC898162DC60E08981ADDB82EE5FDC1D
:100CD00089815BDC0BE811E0C8010197F1F74EE078
:100CE00060E0CE0183DCC8010197F1F74FE060E0DE
:100CF000CE017CDCC8010197F1F761E0888193DBCC
:100D0000C8010197F1F7EBDB6093FB017093FC01E5
:100D10008093FD019093FE01BCDB609315017093FD
:100D20001601809317019093180185EC90E0E2DCA6
:100D30008BEC90E0DFDC9CE088E10FB6F894A8959E
:100D400081BD0FBE91BD8D9A959AC7EED1E0C15F6E
:100D50004EE0842E912CA12CB12C0BE010E08CE203
:100D600092E058E0352E380E94DB609315017093B5
:100D7000160180931701909318018091F70181303B
:100D800009F45DC108F4AAC0823021F0833009F073
:100D9000B5C1A2C0A4DB6B017C018091D10190910F
:100DA000D201FBDB8823C9F140E467E08091D101E7
:100DB0009091D2011BDC512C612CD1E08091D101AA
:100DC0009091D201FFDB811125C067EE71E0809127
:100DD000D1019091D2014BDCE7EEF1E080E09191FE
:100DE000890FCE13FCCF9091F6018913E7CF2091A4
:100DF000D3019091EE012913E1CF2091D40190917C
:100E0000EF012913DBCF2091D5019091F001291337
:100E1000D5CF1CC461105BC001C0D1E08091FB0143
:100E20009091FC019601281B390B8091F90190915A
:100E3000FA018217930708F04AC08091F8018F5F8A
:100E40008093F8014CDB6093FB017093FC0180936D
:100E5000FD019093FE012091F801213079F4C61A2A
:100E6000D70A33E0D694C7943A95E1F761E06C0D68
:100E700048E0649FC0011124069611C0223041F45D
:100E800088E790E09093FA018093F9016AE00BC043
:100E900048D5A501940152D56F5F8AEF90E09093F9
:100EA000FA018093F901C090E6016C0D603108F001
:100EB0006F706093E601E091E601F0E0EF52FE4FC3
:100EC000458165E08091D1019091D2018FDB8091C5
:100ED000F801882309F413C1D4E011C100DB6B01D0
:100EE0007C018091D1019091D20157DB811133C0F7
:100EF0008091FB019091FC01A091FD01B091FE0158
:100F0000A7019601281B390B4A0B5B0B21383105D1
:100F100041055105F0F08091E6018F5F883018F4AB
:100F20008093E60102C01092E601E091E601F0E054
:100F3000E154FE4F408165E08091D1019091D20152
:100F400055DBC092FB01D092FC01E092FD01F092D2
:100F5000FE01D2E0D4C040E467E08091D1019091DD
:100F6000D20144DB8091D1019091D2012BDB811120
:100F7000F0CF67EE71E08091D1019091D20177DBE3
:100F8000E7EEF1E080E09191890FCE13FCCF9091D4
:100F9000F6018913E7CF8091F501803C19F7809124
:100FA000EE018093D3012091EF012093D401909121
:100FB000F0019093D501820F890F482F43708E71F5
:100FC000282F2695269580E1489FA001112480E0D6
:100FD00090E0FC01E40FF51FE159FF4F3081320F23
:100FE000632F6F7009F43350FC01EF52FE4F3583CD
:100FF00001968031910569F71092E6014091D60182
:1010000065E08091D1019091D201F0DAC092FB01AC
:10101000D092FC01E092FD01F092FE0181E080930C
:10102000F701E090D101F090D20160E0F7018181F9
:10103000FAD982EEACDAF7018181A7DA5DC080913E
:10104000D1019091D201A9DA882309F455C040E476
:1010500067E08091D1019091D201C8DAD0E022E01E
:10106000E22E8091D1019091D201ACDA81112CC095
:1010700067EE71E08091D1019091D201F8DAE7EE4C
:10108000F1E080E09191890FCE13FCCF9091F601B1
:101090008913E7CF8091F501803C19F39091D3013A
:1010A0008091EE019813DDCF9091D4018091EF01F2
:1010B0009813D7CF9091D5018091F0019813D1CF9B
:1010C000E092F701D1E0CDCFDD23B1F08091E601D0
:1010D0008F5F803118F48093E60102C01092E60120
:1010E000E091E601F0E0EF52FE4F458165E080912E
:1010F000D1019091D2017ADAD3E001C0D5E0C9D90B
:10110000609308017093090180930A0190930B0189
:10111000DD2371F0D33009F08DC08091070181117A
:1011200089C081E0809307018EEC90E0E3DA7FC014
:1011300020910C012093630020910D0120582093F1
:10114000640020910E0120582093650020910F012A
:10115000205820936600109267001092680020913A
:1011600013012093690010926A00C0901501D0907D
:101170001601E0901701F09018016C197D098E0995
:101180009F094AE0C8DA8FED90E004DB60910C0122
:1011900070E080E090E04AE0BEDA81EE90E0FADABA
:1011A00080910D01082E000C990BF5DA81EE90E08C
:1011B000F1DA80910E01082E000C990BECDA81EE29
:1011C00090E0E8DA80910F01082E000C990BE3DA29
:1011D00081EE90E0DFDA80911001082E000C990B6F
:1011E000DADA81EE90E0D6DA80911101082E000C57
:1011F000990BD1DA81EE90E0CDDA80911201082EC0
:10120000000C990BC8DA81EE90E0C4DA609113010A
:1012100070E080E090E04AE07EDA81EE90E0BADAB9
:101220006091140170E080E090E04AE074DA8BECA9
:1012300090E060DA54D9C0900301D0900401E090AE
:101240000501F0900601DC01CB018C199D09AE0966
:10125000BF098997A105B10508F4F5C140D960938C
:10126000030170930401809305019093060188E0C7
:10127000E3E6F0E0AAEFB0E001900D928A95E1F785
:1012800080911102835087FDD4C09091100220916B
:101290000F022D3209F0CBC0883009F0C8C0ECE055
:1012A000F0E0E91BF109ED5EFD4F83EC8093030252
:1012B0008AE5809361001092EE0080818076F1F0E3
:1012C00025EE30E03093F0002093EF00803209F0FB
:1012D000A4C08181813009F49EC0823041F482E64D
:1012E00090E09093F0008093EF0081E097C08A3007
:1012F00009F093C08381809362008FC09281109225
:101300000C028181811106C010920D022CE032E0A6
:1013100082E07CC0853019F49093120274C086304C
:1013200009F05BC08381813041F48AE990E09093B9
:10133000F0008093EF0082E14CC0823041F488E7F6
:1013400090E09093F0008093EF0082E242C08330FF
:1013500041F5911108C084E790E09093F0008093EC
:10136000EF0084E036C0913041F48CE590E090933A
:10137000F0008093EF0088E12CC0923041F486E4C5
:1013800090E09093F0008093EF0086E122C09330CC
:10139000F9F486E290E09093F0008093EF0080E211
:1013A00018C0813241F48AE890E09093F000809375
:1013B000EF0089E00EC0823259F48091CF01909104
:1013C000D0019093F0008093EF008091CE0101C096
:1013D00080E090E49093EE0021C0883069F089307D
:1013E00019F49093ED000FC08A3049F08B3059F416
:1013F0008BE480932B0207C02DEE30E002C02CE07E
:1014000032E081E003C02CE032E080E03093F00075
:101410002093EF0003C088E001C080E09781911124
:1014200004C09681981708F4892F80936000109269
:1014300011028091610084FF48C0809160008F3F5D
:1014400009F443C0D82F893008F0D8E08D1B809371
:1014500060009091030288E8892780930302DD23CE
:1014600039F18091EF009091F0003091EE0036FF5D
:101470000BC0A4E0B2E0FC013D2F380F44914D9326
:1014800031963E13FBCF09C0DC01E4E0F2E03D2FD2
:101490003E0F4D9141933E13FCCF4FEF4D0F50E067
:1014A0004F5F5F4F840F951F9093F0008093EF0084
:1014B0006D2F84E092E0B8D924E02D0F2C3019F084
:1014C0008FEF809360002093610084E190B394716A
:1014D00031F48150D9F71092120210920E02D1E02D
:1014E0008111D0E08091F1008D17C9F1D11135C083
:1014F000F89488E0C82ED12CF12C90E8592E452C78
:101500004F0C41BE95D93C018C3E98400CF4F42C14
:10151000569421E0C21AD10891F78FEF8F0D81BF49
:10152000CF2CD12C3FEFC31AD30A81B790E0C81655
:10153000D9068CF07DD98C5E984097FF03C09195B9
:10154000819591098615970514F4F1B63C0181B790
:101550008F5F81BFEACFF1BE7894D093F100BFD7FF
:101560004090C7015090C8016090C9017090CA01B5
:101570002091620044E0249F90011124032E000C6E
:10158000440B550B6B017C01C418D508E608F7081D
:10159000C216D306E406F50688F0DA01C901840D07
:1015A000951DA61DB71D8093C7019093C801A093F8
:1015B000C901B093CA0181E08093020148E050E084
:1015C00062EF70E08AEF90E055D1892B19F081E04D
:1015D00080930201809102018823A9F180912A025F
:1015E00084FF31C01092020188E0EAEFF0E0A5EE3E
:1015F000B0E001900D928A95E1F788E0EAEFF0E023
:10160000A2EFB0E001900D928A95E1F780912A0255
:1016100084FF07C090912B0288E8892780932B02D2
:1016200003C08AE580932A02A5EEB0E0ECE2F2E086
:101630008D9181933E12FCCF68E08CE292E0F4D869
:101640008CE080932A02A8958ED68ECB662019F066
:1016500058121DC0B3CB8091E6018F5F803118F422
:101660008093E60102C01092E601E091E601F0E00D
:10167000EF52FE4F458165E08091D1019091D201FA
:10168000B5D71093FA010093F9011092F801509028
:10169000F601C092FB01D092FC01E092FD01F092B4
:1016A000FE019091F501903CB1F18091E7018093AA
:1016B0000C018091E80187FD02C0819501C080582E
:1016C00080930D018091E90187FD02C0819501C0E1
:1016D000805880930E018091EA0187FD02C08195B8
:1016E00001C0805880930F018091EB01805480935A
:1016F00010018091EC018054809311018091ED01E3
:101700008054809312019093130150921401662427
:101710006394D0E053CB6624639450CB10922501A0
:101720001092240188EE93E0A0E0B0E080932601BF
:1017300090932701A0932801B093290183EB90E0B7
:10174000909323018093220180E490E090932F01F5
:1017500080932E0129E230E0309331012093300153
:101760002BE230E030933301209332012AE230E063
:1017700030933501209334019093370180933601E3
:101780008CE290E0909339018093380110923B01F4
:1017900010923C0110923D0110923E01F8948D98F8
:1017A00095982FEF84E39CE0215080409040E1F732
:1017B00000C000008D9A959A8EE091E09093D00140
:1017C0008093CF0185E38093CE018CEF90E09093DE
:1017D000CD018093CC0182E18093CB0185B78260FB
:1017E00085BF8BB780648BBF8BE480932B028AE527
:1017F00080932A02789473D66093C7017093C801CE
:101800008093C9019093CA011092D3011092D40120
:101810001092D5018FE097E29093FA018093F9013D
:101820001092F801EFEBF1E090E0292F220F220F48
:10183000220F88E1820F83FD02C085E1820F819330
:101840009F5F983091F71092F7011092FB01109270
:10185000FC011092FD011092FE011092E601089524
:10186000EE0FFF1F0590F491E02D099481E090E0C8
:10187000F894BEC0FB01DC0104C08D910190801979
:1018800021F441505040C8F7881B990B08958F925E
:101890009F92AF92BF92CF92DF92EF92FF92CF933F
:1018A000DF93EC01688179818A819B8161157105E3
:1018B0008105910521F464E279ED8BE597E02DE156
:1018C00033EF41E050E03AD049015A019B01AC01AD
:1018D000A7EAB1E44FD06B017C01ACEEB4EFA501F7
:1018E000940154D0DC01CB018C0D9D1DAE1DBF1D9C
:1018F000B7FF03C00197A109B04888839983AA83E1
:10190000BB83BC01CD019F77DF91CF91FF90EF901A
:10191000DF90CF90BF90AF909F908F900895B7DFEA
:1019200008958BE690E0B3DF089560936B007093A9
:101930006C0080936D0090936E000895052E97FBC8
:1019400016F400940FD057FD05D024D007FC02D028
:1019500046F408C050954095309521953F4F4F4F24
:101960005F4F089590958095709561957F4F8F4F4B
:101970009F4F089531D0A59F900DB49F900DA49FC7
:10198000800D911D11240895B7FFF4CFF3DF821B62
:10199000930B0895A1E21A2EAA1BBB1BFD010DC0DB
:1019A000AA1FBB1FEE1FFF1FA217B307E407F5070F
:1019B00020F0A21BB30BE40BF50B661F771F881FEB
:1019C000991F1A9469F760957095809590959B0181
:1019D000AC01BD01CF010895A29FB001B39FC0012A
:1019E000A39F01D0B29F700D811D1124911D0895F8
:0419F000F894FFCF99
:1019F400FF5A05007F7F7F7F7F00000100000027E2
:101A04001B392824222E36192129141E122D182E92
:101A1400332538191218162A1C1F372F2334101196
:101A24001A35242818252A322C142736341C172258
:101A340027173934282B1D182A21381026201F0077
:101A44000000004C01C9001601F40008019201666F
:101A540088686868005374617274000D0A004269F2
:101A64006E6420696E2070726F67726573730020F4
:041A74003A0900002B
:00000001FF
