:10000000A7C0F8C0CAC0C9C0C8C0C7C0C6C0C5C0A4
:10001000C4C00CC7C2C0C1C0C0C0BFC0BEC0BDC08C
:10002000BCC0BBC0BAC01201010100000008C0166C
:10003000DC2700010102000105010905A1010901F8
:10004000A1000501093009310933093409350936A0
:10005000150026FF00750895068102C005091901E3
:10006000291015002501750195108102C009022291
:1000700000010100803209040000010300000009B2
:1000800021010100012235000705810308000A1241
:1000900001100100000008C016DC27000101020366
:1000A000012003640072006F006E00650066006945
:1000B0000078002E00720075003A0052005200587D
:1000C0000016035200610069006E0062006F007745
:1000D000002000520058001803640072006F006E88
:1000E0000065006600690078002E0072007500044B
:1000F00003090400000000000000000003040600E3
:1001000000000000000000010204081020408001EF
:10011000020408102001020408102004040404044E
:1001200004040402020202020203030303030300A5
:1001300000000036003300300000000000380035B9
:1001400000320000000000370034003100008B0551
:1001500011241FBECFE5D4E0DEBFCDBF11E0A0E685
:10016000B0E0E6E8F2E102C005900D92A23AB107D4
:10017000D9F722E0A2EAB1E001C01D92A033B20794
:10018000E1F710E0C8EAD0E003C02197FE0145D8AE
:10019000C73AD107D1F7DFD774C832CFA82FB92F0C
:1001A00080E090E041E050EA609530E009C02D9198
:1001B00082279795879510F084279527305EC8F39E
:1001C0006F5FA8F30895EADF8D939D930895A6E0ED
:1001D00088279927AA9569F00197E1F38499FCCFC4
:1001E000849BFECF81E09927A0B3019611F0A47102
:1001F000D9F70895CF93CFB7CF93DF93C395849B5F
:10020000E9F7849B0BC0849B09C0849B07C0849B37
:1002100005C0849B03C0849B01C08BC06F93C091B9
:100220001302DD27C65EDD4F2F9365E5849B03C077
:100230002F916F91E6CF0F931F934F9320E040E1F2
:100240005F9300B3047104FB27F93F9350E03BE058
:1002500039C0147140642F77012F5F5F1EC0406862
:1002600010B314712F7752501FC0406400B32F7722
:100270000471D1F15F5F00C023C0406210B32F77DB
:10028000147191F15F5F00C025C0047110275150B7
:1002900012F45D5F0000115027952C3F10B3C8F693
:1002A00014710127015027952C3FC8F64227499326
:1002B00000B3047110274F73115027952C3FA8F6F7
:1002C0004695469510B3147179F001270150279592
:1002D0002C3F98F66B5A60F3315000B3B0F600C073
:1002E00010E41ABF002719C03B503195C31BD04002
:1002F00010E41ABF0881033C09F10B34F9F0209196
:1003000011021981110F1213EDCF4A81441F0936D2
:1003100051F10D3211F0013E29F7009318023F917F
:100320005F914F911F910F912F916F91CAB7C6FDA9
:1003300065CFDF91CF91CFBFCF9118952091180253
:10034000222369F310911602112391F5343092F1B2
:100350003093160220931202109113023BE0311BDE
:100360003093130227C00091160201300CF50AE504
:100370004F7049F430916D0034FD1DC000936D0045
:10038000CAEFD1E01CC03091050234FD14C00093C7
:100390000502C6E0D2E013C0052710E000C000004F
:1003A00002BB1AC0052710E0221F1DC010E021C0AB
:1003B0004AE502C032ED432FC4E1D0E032E011B390
:1003C0001461949A02B311BB54E120E865E320FF65
:1003D000052702BB279517951C3FF0F66695B8F7E1
:1003E000B1F720FF052702BB279517951C3FD0F6D4
:1003F0002795179517FF052700001C3F02BBB0F695
:1004000029913A9519F70B7E10911702110FC651D9
:10041000D04002BB11F01093110210E41ABF00612A
:1004200011B31B7E402F4B7E54E05A95F1F702BB6F
:1004300011BB42BB74CFDC01892B39F098E0E1EEAF
:10044000F1E001900D929A95E1F788E0E1EEF1E09C
:10045000A9EDB1E001900D928A95E1F70895F89425
:100460008D9895982FEF84E39CE021508040904038
:10047000E1F700C000008D9A959A88E390E0909390
:10048000EE018093ED0185E38093EC0186E290E03C
:100490009093EB018093EA0182E18093E901B9D462
:1004A00078940ED56093CC017093CD018093CE01EA
:1004B0009093CF010895CF92DF92EF92FF920F9326
:1004C0001F938ED3FDD4C090CC01D090CD01E0908D
:1004D000CE01F090CF0120916B0044E0249F900169
:1004E00011248901330F220B330BAB01BC014C19D2
:1004F0005D096E097F09401751076207730788F08D
:10050000D701C601800F911FA21FB31F8093CC019A
:100510009093CD01A093CE01B093CF0181E0809361
:10052000D00148E050E069ED71E081EE91E087D6BE
:10053000892B19F081E08093D0018091D00188232C
:1005400099F08091050284FF0FC01092D00181EDD7
:1005500091E071DF68E081ED91E01F910F91FF90D4
:10056000EF90DF90CF901AC31F910F91FF90EF9003
:10057000DF90CF900895FC0181ED91E090931502FA
:1005800080931402808180768032A9F48181813049
:1005900081F0823041F48BE690E0909315028093D5
:1005A000140281E008958A3031F4838180936B00D6
:1005B00002C088E0089580E00895FC019081892FB1
:1005C0008076F9F491819630E9F49381913019F0B5
:1005D000923261F008958091EA019091EB0190933D
:1005E0001502809314028091E90108958091ED0134
:1005F0009091EE0190931502809314028091EC018A
:10060000089580E0089562E089E001D589E03BD556
:10061000892B29F481E090E0BED481E0089561E067
:1006200089E0F5D480E00895C498C39899E091508A
:1006300051F087FF02C0C39A01C0C398C49A00005A
:10064000C498880FF4CFC39A08950F931F93CF9344
:10065000DF93EB01182F092FC59886E0E5DF802F87
:10066000E3DF812FE1DF8D2FDFDF8C2FDDDFC59A08
:10067000DF91CF911F910F910895CF93C62FC59809
:10068000D3DF00008C2FD0DFC59ACF910895CF9390
:1006900060E08BE0BCD488E0C0E0CC0FB399C160CF
:1006A000C49A0000C49800008150B9F761E08BE063
:1006B000AED48C2FCF910895CF93DF93C59885E466
:1006C000B3DFC7EAD1E0E3DF899381E0CC3BD80711
:1006D000D1F7C59ADF91CF910895C5988064A4DFC2
:1006E000D6DFC59A0895C5989FDFC59A08951F93D0
:1006F000CF93DF93C091BE01D0E08091BF01FE0196
:1007000090E1899FE00DF11D1124E259FF4F1091F6
:10071000BD0110958081180F1093BC0180EAE3DFC2
:1007200080EFE1DF612F8FE0A8DF80ECDCDF219636
:10073000CF70DD27C093BE01DF91CF911F91089547
:100740007F928F929F92AF92BF92CF92DF92EF9261
:10075000FF920F931F93CF93DF938091A20190910B
:10076000A3018132910540F0CD9738F080E290E00E
:100770009093A3018093A201BADFAED34B015C0139
:10078000ABD3DC01CB0188199909AA09BB098C38C4
:100790009540A105B105A0F0AB988091A40190917E
:1007A000A50101969093A5018093A4018091A201D7
:1007B0009091A30101969093A3018093A2019BC005
:1007C000B299DECF80E089DF85FDDACF75DF9091C9
:1007D000A8018091C3019813D3CF9091A901809172
:1007E000C4019813CDCF9091AA018091C5019813AF
:1007F000C7CF9091AB018091C6019813C1CFAB9A3E
:100800001092A5011092A4011092A3011092A201CE
:10081000C7EAD1E041E6842E40E0942E77247A9412
:10082000F8948E8190E0982F88272D81820F911D5A
:100830009093C1018093C00178946091C001709140
:10084000C101CB018152934087379540D0F480E0BD
:1008500090E01F921F921F927F92A12CB12C6501F4
:1008600010EDE12E17E0F12E00E010E028EE33E06D
:1008700040E050E030D4F40160830F900F900F906F
:100880000F902296FFEF8F1A9F0A21E0C73BD207F5
:1008900039F616D30091C7011091C8012091C90102
:1008A0003091CA01AB01BC01401B510B620B730BB1
:1008B0008091690090916A00092E000CAA0BBB0B75
:1008C00084179507A607B70760F4FAD26093C701AB
:1008D0007093C8018093C9019093CA018BEC91E099
:1008E000EADD88E0E1E6F0E0A1EEB1E001900D92F2
:1008F0008A95E1F7A895DF91CF911F910F91FF9015
:10090000EF90DF90CF90BF90AF909F908F907F90AF
:100910000895CF92DF92EF92FF920F931F93CF93A0
:10092000DF9380EAE0DE80EFDEDE60E08FE0A5DED0
:1009300080ECD9DECFEF80916000882309F440C0BD
:100940006AE070E080E090E0EDD28091600082FD8E
:10095000AB9A8091600082FFAB98B29927C080E08B
:10096000BCDE85FD19C0A8DE07EA11E082ECE82EA6
:1009700081E0F82ECAE0D0E06801F80161918F01B2
:10098000CE0172D4F6018081F70181937F01219617
:10099000CF30D10589F714C080EAA5DE80EFA3DE51
:1009A00060E08FE06ADE80EC9EDEC5CF8091600063
:1009B000815019F080936000BECFC0936000BBCF20
:1009C000DF91CF911F910F91FF90EF90DF90CF902B
:1009D00008950F931F93CF93DF930FB6F894A895C4
:1009E00081B5886181BD11BC0FBE61E081E10FD38B
:1009F00060E08AE00CD361E08BE009D361E08CE039
:100A000006D361E08DE003D3C59AC39AC4986AE027
:100A100070E080E090E086D260E080E02EDE6AE266
:100A200075EC85E794E511DE0EE611E0C0E0F80113
:100A300061918F016F3F11F08C2F1FDECF5FC333A9
:100A4000B1F780EA50DE61E082E017DE82E045DE49
:100A50008111FCCF82E241DE63E184E20EDE69E0D7
:100A600085E20BDE80EA3FDECEDD8093A601AB9A05
:100A700064EF71E080E090E055D2AB9864EF71E0F4
:100A800080E090E04FD28091A601811113C08AE0EE
:100A900090E0E2D38A3A59F703EC11E0CBE0D0E0E2
:100AA000CE01DAD3F80181938F012196CF30D105A1
:100AB000B9F703C02EDFAB9AFFCF8091C3019091AD
:100AC000C401A091C501B091C601282F2F702093B9
:100AD000BF019927AA27BB2724E0B695A79597952C
:100AE00087952A95D1F78093BD011092BE018A3077
:100AF00018F089E08093BD019BE088E10FB6F8947F
:100B0000A89581BD0FBE91BD8D9A959ADF91CF9129
:100B10001F910F9108958BEC91E0A1CCDF92EF92A1
:100B2000FF920F931F93CF93DF9308E010E0C0E094
:100B3000D0E8DD2EDC0ED1BE4ADB7C018CEEE8165F
:100B400088E0F8060CF4CD2DD6950150110989F7EF
:100B50008FEF8C0F81BF0C2F10E00F5F1F4F81B7FD
:100B600090E0081719078CF032DB8C5E984097FFF5
:100B700003C09195819591098E159F0514F4C1B715
:100B80007C0181B78F5F81BFEACFC1BFDF91CF9179
:100B90001F910F91FF90EF90DF900895CF93C62F94
:100BA0002091050224FF07C03091060228E8232780
:100BB0002093060203C02AE5209305022C2FFC0196
:100BC000A7E0B2E081918D9321501216DCF36C2FD7
:100BD00087E092E0F8DACC5FC0930502CF910895E8
:100BE000CF93DF9380911602835087FDADC0909123
:100BF00012029D3209F0A6C0883009F0A3C080918E
:100C00001302CCE0D0E0C81BD109C65EDD4F83ECF7
:100C10008093FA018AE580936D001092F00188813B
:100C2000807619F0CE01A7DC84C09A81109203026D
:100C30008981811106C01092040223E032E082E033
:100C400074C0853019F4909317026CC0863009F097
:100C500053C08B81813041F48FE890E0909315026E
:100C60008093140282E144C0823041F48DE690E02A
:100C7000909315028093140282E23AC0833041F5CA
:100C8000911108C08FEE90E09093150280931402AA
:100C900084E02EC0913041F487ED90E090931502EE
:100CA0008093140288E124C0923041F481EC90E0FA
:100CB000909315028093140286E11AC09330B9F420
:100CC00081EA90E0909315028093140280E210C0B4
:100CD000813241F48FE790E09093150280931402E3
:100CE00089E006C0823219F4CE0167DC01C080E0E1
:100CF00090E49093F0011DC0883069F0893019F4B8
:100D0000909319020FC08A3049F08B3059F48BE46C
:100D10008093060207C029E132E002C023E032E0FE
:100D200081E003C023E032E080E03093150220939D
:100D300014029F81911104C09E81981708F4892F95
:100D400080936C001092160280916D0084FF46C063
:100D500080916C008F3F09F441C0C82F893008F0A2
:100D6000C8E08C1B80936C009091FA0188E8892779
:100D70008093FA01CC2331F1409114025091150275
:100D80008091F00186FF0AC0ABEFB1E0FA019C2F21
:100D900084918D9331969150D9F708C0DA01EBEF29
:100DA000F1E09C2F8D9181939150E1F72FEF2C0F63
:100DB00030E02F5F3F4FCA01820F931F90931502BF
:100DC000809314026C2F8BEF91E0FDD9CC5FCC3077
:100DD00019F08FEF80936C00C0936D0084E190B3A5
:100DE000947131F48150D9F71092170210921102C8
:100DF000C1E08111C0E09091EF01C91739F088235B
:100E000019F0F8948BDE7894C093EF01DF91CF91C5
:100E1000089585B7826085BF8BB780648BBFE5E09E
:100E2000F2E08BE481838AE5808308951F920F921C
:100E30000FB60F9211242F933F938F939F93AF93ED
:100E4000BF938091F2019091F301A091F401B091D0
:100E5000F5013091F10123E0230F2D3720F40196A5
:100E6000A11DB11D05C026E8230F0296A11DB11DCD
:100E70002093F1018093F2019093F301A093F40188
:100E8000B093F5018091F6019091F701A091F801DE
:100E9000B091F9010196A11DB11D8093F6019093C7
:100EA000F701A093F801B093F901BF91AF919F9121
:100EB0008F913F912F910F900FBE0F901F9018951B
:100EC0002FB7F8946091F2017091F3018091F401D1
:100ED0009091F5012FBF08953FB7F8948091F601E6
:100EE0009091F701A091F801B091F90122B708B6ED
:100EF00000FE05C02F3F19F00196A11DB11D3FBF97
:100F0000BA2FA92F982F8827820F911DA11DB11DDF
:100F1000BC01CD0142E0660F771F881F991F4A95DB
:100F2000D1F708958F929F92AF92BF92CF92DF92A6
:100F3000EF92FF926B017C01CFDF4B015C01C1148A
:100F4000D104E104F104F1F010D1C6DFDC01CB01E2
:100F500088199909AA09BB09883E9340A105B105E2
:100F600070F321E0C21AD108E108F10888EE880E7A
:100F700083E0981EA11CB11CC114D104E104F1044A
:100F800021F7DDCFFF90EF90DF90CF90BF90AF9033
:100F90009F908F9008958230910538F0880F991FA7
:100FA000880F991F05970197F1F70895789483B7F3
:100FB000826083BF83B7816083BF89B7816089BF47
:100FC0001EBC8EB582608EBD8EB581608EBD8FB524
:100FD00081608FBD85B5846085BD85B5806485BD24
:100FE000329A319A309A379A1AB80895843039F083
:100FF000863049F0833051F48FB58F7702C08FB5BA
:101000008F7D8FBD089585B58F7D85BD0895CF9364
:10101000DF9390E0FC01E95FFE4F2491FC01E55E67
:10102000FE4F8491882361F190E0880F991FFC01A5
:10103000ED5BFE4FC591D491FC01E75CFE4FA5919D
:10104000B491611109C09FB7F894888120958223DB
:101050008883EC912E230BC0623061F49FB7F89423
:101060008881322F309583238883EC912E2B2C930B
:101070009FBF06C08FB7F894E8812E2B28838FBFBF
:10108000DF91CF910895CF93DF93282F30E0F901BE
:10109000ED50FF4F8491F901E95FFE4FD491F901C2
:1010A000E55EFE4FC491CC2389F081119FDFEC2FC8
:1010B000F0E0EE0FFF1FE15DFE4FA591B491EC91C2
:1010C000ED2381E090E021F480E002C080E090E038
:1010D000DF91CF9108954F925F926F927F92AF927E
:1010E000BF92CF92DF92EF92FF920F931F93CF9315
:1010F000DF93CDB7DEB729013A019B01AC0124197A
:1011000035094609570989899A89AB89BC89BC0187
:10111000CD016A197B098C099D0928D0A801970186
:10112000241935094609570930D0CA01B9016A0D99
:101130007B1D8C1D9D1DDF91CF911F910F91FF9005
:10114000EF90DF90CF90BF90AF907F906F905F90C7
:101150004F90089508952ADFFDDF3BDCC0E0D0E02A
:10116000EFDA2097E9F34CD7FBCF0895DB018F939B
:101170009F9327D0BF91AF91A29F800D911DA39FF8
:10118000900DB29F900D11240895052E97FB16F433
:1011900000940FD057FD05D01ED007FC02D046F4B6
:1011A00008C050954095309521953F4F4F4F5F4F68
:1011B000089590958095709561957F4F8F4F9F4FC3
:1011C000089531D0A59F900DB49F900DA49F800DE0
:1011D000911D11240895A1E21A2EAA1BBB1BFD012B
:1011E0000DC0AA1FBB1FEE1FFF1FA217B307E40706
:1011F000F50720F0A21BB30BE40BF50B661F771F5E
:10120000881F991F1A9469F760957095809590953D
:101210009B01AC01BD01CF010895EE0FFF1F0590AA
:10122000F491E02D0994A29FB001B39FC001A39F48
:1012300001D0B29F700D811D1124911D0895FB01F5
:10124000DC0104C08D910190801921F4415050407F
:10125000C8F7881B990B0895E199FECF9FBB8EBB01
:10126000E09A99278DB30895262FE199FECF9FBB71
:101270008EBB2DBB0FB6F894E29AE19A0FBE019691
:061280000895F894FFCF71
:10128600FF00007F0000000000140005FF5A0A5A04
:1012960014641E6E287832823C8C469650A0A0506C
:1012A60096468C3C823278286E1E64145A0A0A5A74
:1012B60050A0146446961E6E3C8C28783282823288
:1012C60078288C3C6E1E96466414A0505A0A2878DC
:1012D6000A5A50A014641E6E3C8C3282469696467C
:1012E60082328C3C6E1E6414A0505A0A782850A094
:1012F60028780A5A1E6E3C8C328246961464641410
:10130600964682328C3C6E1E5A0A7828A05050A00F
:1013160046963C8C28780A5A32821E6E14646414EF
:101326006E1E82325A0A78288C3C9646A050469603
:101336003C8C50A028780A5A1E6E328214646414BB
:1013460082326E1E5A0A7828A0508C3C96464696E3
:101356000A5A3C8C146450A028781E6E328282325F
:101366006E1E7828A05064148C3C5A0A96464696FF
:101376000A5A50A03C8C28781E6E3282146464147B
:1013860082326E1E78288C3CA0505A0A9646FF423E
:10139600001400FFFF0000000001210500509E4BD5
:1013A6000002162B1200628080000A32C30F13C39C
:1013B60000FF00003B001747800301451800010F9E
:0213C600FF0026
:00000001FF
