:100000000C9466000C948E000C948E000C948E0060
:100010000C948E000C948E000C948E000C948E0028
:100020000C948E000C948E000C948E000C94820222
:100030000C948E000C948E000C948E000C948E0008
:100040000C9438020C948E000C948E000C948E004C
:100050000C948E000C948E000C948E000C948E00E8
:100060000C948E000C948E00000000080002010029
:100070000003040700000000000000001112131428
:1000800015160A0B0C0D0E0F0001020304050000EB
:100090000000250028002B0000000000240027009D
:1000A0002A000404040404040404020202020202FA
:1000B000030303030303010204081020408001022C
:1000C000040810200102040810208E0511241FBE10
:1000D000CFEFD8E0DEBFCDBF11E0A0E0B1E0E0E0BF
:1000E000FCE002C005900D92A230B107D9F721E0E3
:1000F000A2E0B1E001C01D92A234B207E1F710E026
:10010000C6E6D0E004C02197FE010E94F805C5367E
:10011000D107C9F70E94E6020C94FE050C9400007A
:1001200090E0FC01EA54FF4F2491FC01EE55FF4F93
:100130008491882399F090E0880F991FFC01E8567C
:10014000FF4FA591B491FC01E257FF4F8591949127
:100150008FB7F894EC91E22BEC938FBF089590E069
:10016000FC01E859FF4F3491FC01EA54FF4F249100
:10017000FC01EE55FF4FE491EE2309F43BC033231D
:1001800039F1333091F038F43130A9F0323001F5E3
:1001900084B58F7D12C0373091F03830A1F0343003
:1001A000B9F4809180008F7D03C0809180008F77AB
:1001B000809380000DC084B58F7784BD09C0809185
:1001C000B0008F7703C08091B0008F7D8093B00026
:1001D000F0E0EE0FFF1FE257FF4FA591B4918FB7EC
:1001E000F894EC91611103C020952E2301C02E2BB1
:1001F0002C938FBF08953FB7F8948091060190919A
:100200000701A0910801B091090126B5A89B05C07E
:100210002F3F19F00196A11DB11D3FBFBA2FA92F85
:10022000982F8827820F911DA11DB11DBC01CD0102
:1002300043E0660F771F881F991F4A95D1F70895ED
:100240008F929F92AF92BF92CF92DF92EF92FF92E6
:100250000E94FB004B015C0185E0C82ED12CE12CF3
:10026000F12C0E94FB00DC01CB0188199909AA0935
:10027000BB09883E9340A105B10558F021E0C21AA0
:10028000D108E108F10888EE880E83E0981EA11CD1
:10029000B11CC114D104E104F10419F7FF90EF90EF
:1002A000DF90CF90BF90AF909F908F9008958EBDBC
:1002B00000000DB407FEFDCF8EB508959CB59F7D5F
:1002C0009CBD9CB5937F9CBD9CB59C7F9CBD9DB502
:1002D00091609DBD682F80912C010E94AF0080919C
:1002E0003E0190913F018330910528F0880F991FBE
:1002F00004970197F1F7089580E00C945E011F9335
:10030000CF93DF931F92CDB7DEB789830E947C0124
:1003100089818F710E9457018FEF0E945701182F1A
:1003200081E00E945E01812F0F90DF91CF911F919C
:100330000895CF930E947C0181EE0E945701C82F3F
:1003400081E00E945E018C2FCF9108951F93CF937F
:10035000DF9300D0CDB7DEB76A8389830E947C012A
:1003600089818F7180620E945701182F6A81862FC0
:100370000E94570181E00E945E01812F0F900F9033
:10038000DF91CF911F91089580E00E947F0181FD50
:1003900007C0682F626080E00E94A6010C942001D3
:1003A00008950F931F93CF938C0186E00E947F01E5
:1003B000C82FC77D0230110531F4C0628BE990E08F
:1003C000A0E0B0E00DC00130110529F085E590E016
:1003D000A0E0B0E005C0C86081E490E0A0E0B0E03B
:1003E00080933A0190933B01A0933C01B0933D016F
:1003F0006C2F86E00E94A60186E00E947F0191E0BA
:100400008C1390E0892FCF911F910F910895EF9257
:10041000FF920F931F93CF93DF9300D01F92CDB71E
:10042000DEB7162F4A837B8389830E947C018981F2
:100430008F7180620E945701082FE12E7B81F72E79
:100440004A81140F1E1531F0F70181917F010E943E
:100450005701F8CF81E00E945E01802F0F900F902E
:100460000F90DF91CF911F910F91FF90EF90089522
:100470001F920F920FB60F9211242F933F938F93D9
:100480009F93AF93BF9380910B0190910C01A0912A
:100490000D01B0910E013091050126E0230F2D379B
:1004A00020F40296A11DB11D05C029E8230F039673
:1004B000A11DB11D2093050180930B0190930C01A8
:1004C000A0930D01B0930E01809106019091070158
:1004D000A0910801B09109010196A11DB11D809361
:1004E000060190930701A0930801B0930901BF9101
:1004F000AF919F918F913F912F910F900FBE0F90D1
:100500001F9018951F920F920FB60F9211242F93E0
:100510003F934F935F938F939F93EF93FF9310922B
:1005200085001092840080910001882351F05A9830
:100530008CE291E0909389008093880010920001F2
:1005400038C0599A81E0809300018091040188307D
:1005500098F010920401209102013091030188EB80
:1005600096E5821B930B90938900809388001092EC
:100570000301109202011DC0E82FF0E0EE0FFF1FF3
:10058000E15FFE4F208131812C5231403093890050
:100590002093880040910201509103012081318114
:1005A000240F351F30930301209302018F5F809346
:1005B0000401FF91EF919F918F915F914F913F9136
:1005C0002F910F900FBE0F901F901895CF93DF9330
:1005D000CDB7DEB728970FB6F894DEBF0FBECDBFFC
:1005E000789484B5826084BD84B5816084BD85B50E
:1005F000826085BD85B5816085BD80916E0081601A
:1006000080936E00109281008091810082608093BF
:1006100081008091810081608093810080918000C1
:100620008160809380008091B10084608093B100EC
:100630008091B00081608093B00080917A008460E6
:1006400080937A0080917A00826080937A00809112
:100650007A008E7F80937A0080917A008068809300
:100660007A001092C100EFE0F1E082E593E081931F
:10067000919321E0EF31F207D1F781E00E949000E1
:1006800060E081E00E94AF00F89410928000109228
:10069000810084E690E090938900809388008091A7
:1006A00081008860809381008091810082608093C6
:1006B000810080916F00826080936F0078948091B8
:1006C0002A0190912B0120912C0130912D0182174C
:1006D000930711F00E94900080912C0190912D01C0
:1006E00020912A0130912B012817390711F00E941F
:1006F00090001FB7F89480910A01811124C0ECEAA0
:10070000F0E08491E0ECF0E09491E82FF0E0EE0F5F
:10071000FF1FE856FF4FA591B491EC91E92321F416
:1007200061E08AE00E94AF008AE00E9490008CB5F0
:1007300080618CBD8CB580648CBD8DE00E94900082
:100740008BE00E94900080910A018F5F80930A01E4
:100750001FBF80912A0190912B0120912C01309193
:100760002D018217930719F060E00E94AF0081E02D
:100770000E945E010E9420016CE080E00E94A601C0
:100780006FE584E00E94A60182E090E00E94D10122
:10079000882319F081E08093300186E00E947F0178
:1007A00080E090E00E94D1010E947C0180E50E94DF
:1007B000570183E70E94570181E00E945E0160E0DB
:1007C0008DE10E94A60160E08CE10E94A6011092DA
:1007D000320160E787E00E94A6016CE485E00E9498
:1007E000A6010E947C0182EE0E94570181E00E94D6
:1007F0005E010E9499010E94C40180E00E947F0175
:10080000682F6E7F80E00E94A60182E090E00E9447
:10081000D10160E081E00E94A60181EE898380EF32
:100820008A838B8388EE8C838D831E821F82188639
:10083000E3E8F0E0849140913801BE016F5F7F4FA3
:100840000E940702EDE7F0E08491609131010E947F
:10085000A60182E00E947F01E9E8F0E0E49161E016
:1008600070E001C0660FEA95EAF7682B82E00E940B
:10087000A6010E94C40180E00E947F01682F616090
:1008800080E00E94A60160E787E00E94A6018091B7
:100890002A0190912B0120912C0130912D0182177A
:1008A000930719F061E00E94AF0080913301882323
:1008B00041F04091380163E371E08AE00E94070251
:1008C00012C082E00E947F01E8E8F0E0E49121E0BC
:1008D00030E001C0220FEA95EAF72095622F6823E5
:1008E00082E00E94A6018DE10E947F0181FD0E94AD
:1008F0009901812C912C54018A9422E5E22E23E067
:10090000F22E30E0C32E30E0D32E87E10E947F012B
:1009100080FD42C0109131011730E0F107E0809175
:100920003201811102C0101B01C010E00E947C0145
:1009300081E60E9457018FE1682E81E0782E0150F8
:1009400038F08FEF0E945701F30181933F01F7CFF9
:10095000112329F08FEF0E9457011150F9CF81E048
:100960000E945E0160E787E00E94A6012FB7F8941D
:1009700080910B0190910C01A0910D01B0910E019D
:100980002FBF8093260190932701A0932801B09355
:100990002901BBCF012FC3CF2FB7F89480910B0152
:1009A00090910C01A0910D01B0910E012FBF4091CB
:1009B0002601509127016091280170912901841B23
:1009C000950BA60BB70B89359240A105B10548F0F0
:1009D000EFE0F1E0E192F19221E0EF31F207D1F79F
:1009E00096C02091220130E0A8EEB3E00E94E90514
:1009F000A50194010E94A805DA01C90188519C4F04
:100A0000AF4FBF4F9093100180930F0120912101B0
:100A100030E0A8EEB3E00E94E905A50194010E9430
:100A2000A805DA01C90188519C4FAF4FBF4F909381
:100A300012018093110120911F0130E0A8EEB3E074
:100A40000E94E905A50194010E94A805DA01C901E7
:100A500088519C4FAF4FBF4F909314018093130167
:100A60002091200130E0A8EEB3E00E94E905A50145
:100A700094010E94A805DA01C90188519C4FAF4F2B
:100A8000BF4F90931601809315012091230130E010
:100A9000A8EEB3E00E94E905A50194010E94A80513
:100AA000DA01C90188519C4FAF4FBF4F9093180195
:100AB000809317012091240130E0A8EEB3E00E945A
:100AC000E905A50194010E94A805DA01C901885130
:100AD0009C4FAF4FBF4F90931A01809319018091A3
:100AE000250180FD03C028EE33E002C020ED37E091
:100AF00030931C0120931B0181FD03C088EE93E01D
:100B000002C080ED97E090931E0180931D01C114F7
:100B1000D10409F4FACE0E940000F7CEEAE2F1E037
:100B200089E090E0918380838AE090E093838283E0
:100B3000168280E28783108685E0868785E090E0D4
:100B4000A0E0B0E0848B958BA68BB78B11860895BF
:100B5000052E97FB1EF400940E94BF0557FD07D099
:100B60000E94C70507FC03D04EF40C94BF055095B6
:100B70004095309521953F4F4F4F5F4F0895909589
:100B80008095709561957F4F8F4F9F4F0895A1E29B
:100B90001A2EAA1BBB1BFD010DC0AA1FBB1FEE1FF7
:100BA000FF1FA217B307E407F50720F0A21BB30B42
:100BB000E40BF50B661F771F881F991F1A9469F7BE
:100BC00060957095809590959B01AC01BD01CF011A
:100BD0000895A29FB001B39FC001A39F700D811D16
:100BE0001124911DB29F700D811D1124911D089536
:100BF000EE0FFF1F0590F491E02D0994F894FFCFBC
:020C00000100F1
:00000001FF
