:1000000040C064C063C062C061C060C05FC05EC009
:100010005DC0C6C25BC092C26CC258C057C056C059
:1000200055C054C053C000000000380035003200F5
:1000300000000000370034003100000000003600EE
:100040003300300004040404040404040202020225
:10005000020203030303030301020408102040808B
:100060000102040810200102040810200000000012
:100070000000000000030406000000000000000073
:10008000370611241FBECFE5D4E0DEBFCDBF22E08E
:10009000A8EAB1E001C01D92AE3BB207E1F711E062
:1000A000A0E6B0E0EEEAFDE002C005900D92A83AAD
:1000B000B107D9F710E0C1E4D0E003C02197FE01F9
:1000C00001D6C034D107D1F7B5D26FC699CFCF9240
:1000D000DF92EF92FF920F931F93CF93DF936C0108
:1000E0007A018B01C0E0D0E0CE15DF0589F0D801A0
:1000F0006D918D01D601ED91FC910190F081E02D83
:10010000C6010995892B11F47E0102C02196ECCF1E
:10011000C701DF91CF911F910F91FF90EF90DF907A
:10012000CF900895FC01918D828D981761F0828D9A
:10013000DF01A80FB11D5D968C91928D9F5F9F731B
:10014000928F90E008958FEF9FEF0895FC01918DBD
:10015000828D981731F0828DE80FF11D858D90E02A
:1001600008958FEF9FEF0895FC01918D228D892FC7
:1001700090E0805C9F4F821B91098F7399270895AF
:1001800089ED91E0F1DF21E0892B09F420E0822F55
:100190000895FC01848DDF01A80FB11DA35ABF4F44
:1001A0002C91848D90E001968F739927848FA68976
:1001B000B7892C93A089B1898C9180648C93938D9D
:1001C000848D981306C00288F389E02D80818F7D8D
:1001D00080830895EF92FF920F931F93CF93DF9345
:1001E000EC0181E0888F9B8D8C8D981305C0E88988
:1001F000F989808185FD23C0F62E0B8D10E00F5FFD
:100200001F4F0F731127E02E8C8DE8120BC00FB615
:1002100007FCFACFE889F989808185FFF5CFCE0107
:10022000B8DFF2CF8B8DFE01E80FF11DE35AFF4FCF
:10023000F0820B8FEA89FB898081806207C0EE899A
:10024000FF896083E889F98980818064808381E007
:1002500090E0DF91CF911F910F91FF90EF90089563
:10026000CF93DF93EC01888D8823C1F0EA89FB8965
:10027000808185FD05C0A889B9898C9186FD0EC055
:100280000FB607FCF5CF808185FFF2CFA889B98929
:100290008C9185FFEDCFCE017CDFE8CFDF91CF9150
:1002A000089580E090E0892B19F06ADF8111A8CED3
:1002B0000895CF93DF9390E0FC01E85AFF4F24911B
:1002C000FC01EC5BFF4F8491882361F190E0880F83
:1002D000991FFC01E05DFF4FC591D491FC01EA5DDF
:1002E000FF4FA591B491611109C09FB7F89488811F
:1002F000209582238883EC912E230BC0623061F419
:100300009FB7F8943881822F809583238883EC915E
:100310002E2B2C939FBF06C08FB7F894E8812E2B0D
:1003200028838FBFDF91CF9108953FB7F8948091D4
:10033000AA019091AB01A091AC01B091AD0122B79F
:1003400008B600FE05C02F3F19F00196A11DB11D92
:100350003FBFBA2FA92F982F8827820F911DA11D6B
:10036000B11DBC01CD0143E0660F771F881F991FA7
:100370004A95D1F708958F929F92AF92BF92CF92F4
:10038000DF92EF92FF926B017C01CFDF4B015C01AA
:10039000C114D104E104F104E9F0C7DFDC01CB01B1
:1003A00088199909AA09BB09883E9340A105B1059E
:1003B00078F321E0C21AD108E108F10888EE880E2E
:1003C00083E0981EA11CB11CC114D104E104F10406
:1003D00021F7DECFFF90EF90DF90CF90BF90AF90EE
:1003E0009F908F900895CF9360E08BE062DF88E06C
:1003F000C0E0CC0FB399C160C49A0000C49800005B
:100400008150B9F761E08BE054DF8C2FCF910895D4
:10041000C498C39899E0915051F087FF02C0C39AE5
:1004200001C0C398C49A0000C498880FF4CFC39A3F
:100430000895C598EDDFC59A0895C5988064E8DFF2
:10044000D2DFC59A0895CF93DF931F92CDB7DEB761
:10045000C5986983DDDF00006981862FD9DFC59AE1
:100460000F90DF91CF9108951F93CF93DF93C5989D
:1004700085E4CEDFC1E8D2E01C2F1B5EB4DF899398
:100480001C13FCCFC59ADF91CF911F9108950F9354
:100490001F93CF93DF931F92CDB7DEB70091AE01CC
:1004A00010E06091AF0160958091B001F80190E19A
:1004B000899FE00DF11D1124EB59FF4F8081680FDA
:1004C0006093A80180EA6983B4DF80EFB2DF6981BD
:1004D0008FE0B9DF80ECADDF0F5F1F4F0F7011278A
:1004E0000093AE010F90DF91CF911F910F9108956E
:1004F000EFD31F920F920FB60F9211242F933F93B9
:100500004F935F936F937F938F939F93AF93BF931B
:10051000EF93FF9389ED91E03CDEFF91EF91BF9166
:10052000AF919F918F917F916F915F914F913F918B
:100530002F910F900FBE0F901F9018951F920F9242
:100540000FB60F9211242F938F939F93EF93FF93E6
:10055000E091E901F091EA018081E091EF01F091F1
:10056000F00182FD12C090818091F2018F5F8F7344
:100570002091F301821751F0E091F201F0E0E7528F
:10058000FE4F958F8093F20101C08081FF91EF9122
:100590009F918F912F910F900FBE0F901F901895E4
:1005A0001F920F920FB60F9211242F933F938F93A8
:1005B0009F93AF93BF938091B6019091B701A091A3
:1005C000B801B091B9013091A90126E0230F2D3770
:1005D00020F40296A11DB11D05C029E8230F039642
:1005E000A11DB11D2093A9018093B6019093B7017D
:1005F000A093B801B093B9018091AA019091AB0189
:10060000A091AC01B091AD010196A11DB11D8093E7
:10061000AA019093AB01A093AC01B093AD01BF913F
:10062000AF919F918F913F912F910F900FBE0F909F
:100630001F901895789483B7826083BF83B78160D9
:1006400083BF89B7816089BF1EBC8EB582608EBDB5
:100650008EB581608EBD8FB581608FBD85B584609C
:1006600085BD85B5806485BD329A319A3098379AB8
:100670001AB8E091E901F091EA0182E08083E0910B
:10068000E501F091E6011082E091E701F091E801C7
:1006900089E080831092F101E091ED01F091EE018B
:1006A0008EEA8083E091EB01F091EC018081806122
:1006B0008083E091EB01F091EC0180818860808380
:1006C000E091EB01F091EC01808180688083E09102
:1006D000EB01F091EC0180818F7D808380E094E0DC
:1006E0009093970280939602909399028093980238
:1006F00028EC30E030939B0220939A0290939D0265
:1007000080939C0290939F0280939E029093A102FB
:100710008093A0029093A3028093A2029093A502DB
:100720008093A4029093A7028093A6029093A902BB
:100730008093A8029093AB028093AA029093AD029B
:100740008093AC029093AF028093AE029093B1027B
:100750008093B0029093B3028093B2029093B5025B
:100760008093B4021092B7021092B6021092B902AE
:100770001092B8021092BA011092BB0161E081E1BF
:1007800098DD60E08AE095DD61E08BE092DD61E07C
:100790008CE08FDD61E08DE08CDDC59AC39AC49852
:1007A0006AE070E080E090E0E6DD60E080E04BDE53
:1007B000C59886E02DDE84E52BDE85E729DE85EC15
:1007C00027DE8AE225DEC59A05E711E0C0E0F801E0
:1007D00061918F016F3F11F08C2F35DECF5FC333F6
:1007E000B1F780EA26DE61E082E02DDE82E025DEE0
:1007F0008111FCCF82E221DE63E184E224DE69E044
:1008000085E221DE80EA15DE62E089E052DDE5E77F
:10081000F0E08491E1E6F0E09491EDE4F0E0E49121
:10082000EE2309F422C2882381F0843039F0863027
:1008300049F0833051F48FB58F7702C08FB58F7D2B
:100840008FBD03C085B58F7D85BDF0E0EE0FFF1F26
:10085000E65CFF4FA591B491EC91E92309F405C240
:1008600061E089E026DD80E08093B501AB9A64EF1A
:1008700071E080E090E07FDDAB9864EF71E080E0B4
:1008800090E079DD8091B501811112C08AE090E09D
:1008900023D28A3A59F7CBE0D0E0CE011DD2FE0137
:1008A000EE58FD4F80832196CF30D105B1F74EC071
:1008B00080EABFDD80EFBDDD60E08FE0C4DD80EC6D
:1008C000B8DDDFEFC0916000CC2349F16AE070E051
:1008D00080E090E050DDC2FDAB9A8091600082FF25
:1008E000AB98B29928C080E0A8DD85FD1AC0BCDDB8
:1008F00001E812E0FCE7EF2EF2E0FF2ECAE0D0E0C4
:100900005801F80161918F01CE01EED1F50180818E
:10091000F70181937F012196CF30D10589F7AB9AFA
:1009200014C080EA86DD80EF84DD60E08FE08BDD3F
:1009300080EC7FDDC7CF80916000815080936000A4
:100940008111C0CFD0936000BDCFFFCF20917E0238
:1009500080917F0290E0A0E0B0E0DC019927882739
:10096000922B20917D02822B20918002B22B8093CA
:10097000B1019093B201A093B301B093B401282FB9
:100980002F702093B0019927AA27BB27E4E0B695E2
:10099000A79597958795EA95D1F78093AF01109227
:1009A000AE010A97A105B10518F089E08093AF0167
:1009B00000E210E04AE0E42EF12C58EE852E53E0E0
:1009C000952EA12CB12C6FE0D62E8091BC02909177
:1009D000BD028132910530F0CD9728F01093BD0211
:1009E0000093BC0254DDA1DC2B013C018091BA02D2
:1009F0009091BB028139914000F597DCDC01CB017D
:100A000084199509A609B7098C389540A105B10547
:100A100008F1AB988091BA029091BB020196909335
:100A2000BB028093BA028091BC029091BD020196F4
:100A30009093BD028093BC0216C11092BB0210922B
:100A4000BA02E6E9F2E0E192F19242E0E63AF40716
:100A5000D1F7D3CFB299CACF80E0EFDC85FDC6CF06
:100A600003DD9091820280917D029813BFCF909117
:100A7000830280917E029813B9CF90918402809175
:100A80007F029813B3CF90918502809180029813D2
:100A9000ADCFAB9A1092BB021092BA021092BD0277
:100AA0001092BC02C0E0D0E0F894FE01EF57FD4F79
:100AB0002581868190E0982F8827820F911D909341
:100AC0007B0280937A02789420917A0230917B02A3
:100AD000C9018152934087379540D0F4C901A0E005
:100AE000B0E09C01AD01285E334041095109A0E40A
:100AF000B6E023D1A501940104D1DA01C9018853DC
:100B00009F4FAF4FBF4FFE01EA56FD4F9183808349
:100B10002296C031D10541F62FB7F8948091B601E5
:100B20009091B701A091B801B091B9012FBF409148
:100B30007602509177026091780270917902841B5D
:100B4000950BA60BB70B0897A105B10508F48BC050
:100B50002FB7F8948091B6019091B701A091B80198
:100B6000B091B9012FBF8093760290937702A09342
:100B70007802B093790280E0E82FF0E0E054FE4F75
:100B800010828F5F8931C1F7D092C00180E061E0AF
:100B90002091BC0190E0903159F140E050E0E92F04
:100BA000F0E0EE0FFF1FEA56FD4F883010F06F5F48
:100BB00080E0A62FB0E0A054BE4F20813181042EEA
:100BC00002C0369527950A94E2F721703327082E44
:100BD00001C0220F0A94EAF73C91232B2C938F5FDC
:100BE0004F5F5F4F4B30510501F79F5F2BE0D3CF35
:100BF0008093BE016093BF012093BC019093BD011F
:100C00008091B6029091B7028115944028F08091AE
:100C1000D70181608093D7018091B8029091B90289
:100C20008115944028F08091D70182608093D7018C
:100C30008091BB01882329F08091D7018460809343
:100C4000D7018091BA01882329F08091D70188606B
:100C50008093D7011092D80149E150E060EC71E037
:100C600089ED91E034DA1DDBB0CE81E0FDCDE9ED18
:100C7000F1E01382128288EE93E0A0E0B0E084837A
:100C80009583A683B78389E691E09183808380E48E
:100C900090E09587848729E230E0378726872BE22A
:100CA00030E0318B208B2AE230E0338B228B958B26
:100CB000848B8CE290E0978B868B118E128E138E34
:100CC000148E0895EE0FFF1F0590F491E02D099406
:100CD00081E090E0F89469C0E199FECF9FBB8EBBA4
:100CE000E09A99278DB30895262FE199FECF9FBBF7
:100CF0008EBB2DBB0FB6F894E29AE19A0FBE019617
:100D00000895052E97FB16F400940FD057FD05D0DB
:100D10001ED007FC02D046F408C05095409530958F
:100D200021953F4F4F4F5F4F089590958095709557
:100D300061957F4F8F4F9F4F08952BD0A59F900DAA
:100D4000B49F900DA49F800D911D11240895A1E2E0
:100D50001A2EAA1BBB1BFD010DC0AA1FBB1FEE1F35
:100D6000FF1FA217B307E407F50720F0A21BB30B80
:100D7000E40BF50B661F771F881F991F1A9469F7FC
:100D800060957095809590959B01AC01BD01CF0158
:100D90000895A29FB001B39FC001A39F01D0B29F4D
:0E0DA000700D811D1124911D0895F894FFCF50
:100DAE00FF010000000A5A14641E6E287832823C3D
:100DBE008C469650A0A05096468C3C823278286E77
:100DCE001E64145A0A0A5A50A0146446961E6E3CAB
:100DDE008C28783282823278288C3C6E1E9646643D
:100DEE0014A0505A0A28780A5A50A014641E6E3C59
:100DFE008C32824696964682328C3C6E1E6414A0CD
:100E0E00505A0A782850A028780A5A1E6E3C8C3206
:100E1E0082469614646414964682328C3C6E1E5A38
:100E2E000A7828A05050A046963C8C28780A5A3250
:100E3E00821E6E146464146E1E82325A0A78288CD6
:100E4E003C9646A05046963C8C50A028780A5A1ED6
:100E5E006E32821464641482326E1E5A0A7828A08E
:100E6E00508C3C964646960A5A3C8C146450A028E8
:100E7E00781E6E328282326E1E7828A05064148CD8
:100E8E003C5A0A964646960A5A50A03C8C28781E22
:100E9E006E32821464641482326E1E78288C3CA0EA
:100EAE00505A0A964600000000EA006700B400920D
:100EBE0000A6003001FF42001400FFFF00000000FA
:100ECE0001210500509E4B0002162B1200628080FD
:100EDE00000A32C30F13C300FF00003B0017478008
:080EEE000301451800010FFF8C
:00000001FF
