:100000000C9462000C948A000C948A000C948A0070
:100010000C948A000C948A000C948A000C948A0038
:100020000C948A000C948A000C948A000C948A0028
:100030000C948A000C948A000C948A000C948A0018
:100040000C941D030C948A000C94EB020C94C502D2
:100050000C948A000C948A000C948A000C948A00F8
:100060000C948A000C948A000000000025002800EF
:100070002B0000000000240027002A0000000000E0
:1000800023002600290004040404040404040202DA
:100090000202020203030303030301020408102007
:1000A0004080010204081020010204081020000012
:1000B0000008000201000003040700000000000027
:1000C0000000EE0611241FBECFEFD8E0DEBFCDBF8B
:1000D00012E0A0E0B1E0E2E3FFE002C005900D9283
:1000E000A634B107D9F723E0A6E4B2E001C01D921F
:1000F000AC35B207E1F710E0C2E6D0E004C02197CA
:10010000FE010E948C07C136D107C9F70E94670320
:100110000C9497070C940000CF92DF92EF92FF921D
:100120000F931F93CF93DF936C017A018B01C0E093
:10013000D0E0CE15DF0589F0D8016D918D01D60193
:10014000ED91FC910190F081E02DC6010995892B7C
:1001500011F47E0102C02196ECCFC701DF91CF914F
:100160001F910F91FF90EF90DF90CF900895089529
:1001700080E090E00895FC01538D448D252F30E000
:10018000842F90E0821B930B541710F0CF960895A4
:1001900001970895FC01918D828D981761F0828DF1
:1001A000DF01A80FB11D5D968C91928D9F5F9F73AB
:1001B000928F90E008958FEF9FEF0895FC01918D4D
:1001C000828D981731F0828DE80FF11D858D90E0BA
:1001D00008958FEF9FEF0895FC01918D228D892F57
:1001E00090E0805C9F4F821B91098F73992708953F
:1001F00087E792E00E94EC0021E0892B09F420E0DF
:10020000822F0895FC01848DDF01A80FB11DA35A30
:10021000BF4F2C91848D90E001968F739927848F26
:10022000A689B7892C93A089B1898C9180648C931D
:10023000938D848D981306C00288F389E02D808108
:100240008F7D80830895EF92FF920F931F93CF933A
:10025000DF93EC0181E0888F9B8D8C8D981305C016
:10026000E889F989808185FD24C0F62E0B8D10E088
:100270000F5F1F4F0F731127E02E8C8DE8120CC0FB
:100280000FB607FCFACFE889F989808185FFF5CFA1
:10029000CE010E940201F1CF8B8DFE01E80FF11D0E
:1002A000E35AFF4FF0820B8FEA89FB8980818062DD
:1002B00007C0EE89FF896083E889F98980818064BD
:1002C000808381E090E0DF91CF911F910F91FF90AB
:1002D000EF900895CF93DF93EC01888D8823C9F0C8
:1002E000EA89FB89808185FD05C0A889B9898C913F
:1002F00086FD0FC00FB607FCF5CF808185FFF2CFDA
:10030000A889B9898C9185FFEDCFCE010E940201A9
:10031000E7CFDF91CF91089580E090E0892B29F01D
:100320000E94F80081110C9400000895CF93DF9390
:1003300090E0FC01E656FF4F2491FC01EA57FF4F85
:100340008491882361F190E0880F991FFC01EE5899
:10035000FF4FC591D491FC01E859FF4FA591B4918D
:10036000611109C09FB7F894888120958223888302
:10037000EC912E230BC0623061F49FB7F894388162
:10038000822F809583238883EC912E2B2C939FBF03
:1003900006C08FB7F894E8812E2B28838FBFDF919A
:1003A000CF9108953FB7F894809148029091490207
:1003B000A0914A02B0914B0226B5A89B05C02F3FE1
:1003C00019F00196A11DB11D3FBFBA2FA92F982F7B
:1003D0008827820F911DA11DB11DBC01CD0143E0F5
:1003E000660F771F881F991F4A95D1F708958F923E
:1003F0009F92AF92BF92CF92DF92EF92FF926B01EA
:100400007C010E94D2014B015C01C114D104E104C2
:10041000F104F1F00E94D201DC01CB0188199909A5
:10042000AA09BB09883E9340A105B10570F321E0FC
:10043000C21AD108E108F10888EE880E83E0981E00
:10044000A11CB11CC114D104E104F10419F7DDCFE2
:10045000FF90EF90DF90CF90BF90AF909F908F90E4
:100460000895CF9360E08BE00E94960188E0C0E0A1
:10047000CC0F1B99C1602C9A00002C980000815071
:10048000B9F761E08BE00E9496018C2FCF9108951F
:100490002C982B9899E0915051F087FF02C02B9A2D
:1004A00001C02B982C9A00002C98880FF4CF2B9A1F
:1004B00008952D980E9448022D9A08952D988064E1
:1004C0000E9448020E9431022D9A0895CF93DF9333
:1004D0001F92CDB7DEB72D9869830E9448020000B5
:1004E0006981862F0E9448022D9A0F90DF91CF914B
:1004F00008951F93CF93DF932D9885E40E944802BF
:10050000CFE1D3E01C2F1B5E0E94310289931C13A4
:10051000FBCF2D9ADF91CF911F9108950F931F93D9
:10052000CF93DF931F92CDB7DEB700914C0210E05E
:1005300060914D02609580914E02F80190E1899F93
:10054000E00DF11D1124EF5FFE4F8081680F609375
:10055000460280EA69830E94590280EF0E94590294
:1005600069818FE00E94660280EC0E9459020F5F51
:100570001F4F0F70112700934C020F90DF91CF9106
:100580001F910F9108950E9492071F920F920FB62C
:100590000F9211242F933F934F935F936F937F9309
:1005A0008F939F93AF93BF93EF93FF9387E792E06F
:1005B0000E940201FF91EF91BF91AF919F918F91A6
:1005C0007F916F915F914F913F912F910F900FBE4F
:1005D0000F901F9018951F920F920FB60F92112433
:1005E0002F938F939F93EF93FF93E0918702F09166
:1005F00088028081E0918D02F0918E0282FD12C00E
:100600009081809190028F5F8F7320919102821769
:1006100051F0E0919002F0E0E958FD4F958F809302
:10062000900201C08081FF91EF919F918F912F9156
:100630000F900FBE0F901F9018951F920F920FB63C
:100640000F9211242F933F938F939F93AF93BF9358
:100650008091540290915502A0915602B091570298
:100660003091470226E0230F2D3720F40296A11D7A
:10067000B11D05C029E8230F0396A11DB11D2093CC
:1006800047028093540290935502A0935602B09370
:1006900057028091480290914902A0914A02B0917C
:1006A0004B020196A11DB11D80934802909349020F
:1006B000A0934A02B0934B02BF91AF919F918F914B
:1006C0003F912F910F900FBE0F901F901895789427
:1006D00084B5826084BD84B5816084BD85B5826047
:1006E00085BD85B5816085BD80916E0081608093F8
:1006F0006E00109281008091810082608093810061
:100700008091810081608093810080918000816070
:10071000809380008091B10084608093B1008091CB
:10072000B00081608093B00080917A0084608093F3
:100730007A0080917A00826080937A0080917A00BA
:100740008E7F80937A0080917A00806880937A000F
:100750001092C100E0918702F091880282E08083CC
:10076000E0918302F09184021082E0918502F09181
:10077000860289E0808310928F02E0918B02F091D3
:100780008C028EE28083E0918902F0918A0280815E
:1007900080618083E0918902F0918A028081886083
:1007A0008083E0918902F0918A0280818068808351
:1007B000E0918902F0918A0280818F7D808380E0C0
:1007C00094E09093350380933403909337038093A0
:1007D000360328EC30E030933903209338039093AC
:1007E0003B0380933A0390933D0380933C039093A3
:1007F0003F0380933E039093410380934003909383
:100800004303809342039093450380934403909362
:100810004703809346039093490380934803909342
:100820004B0380934A0390934D0380934C03909322
:100830004F0380934E039093510380935003909302
:100840005303809352031092550310925403109255
:10085000570310925603109258021092590261E009
:1008600081E10E94960160E08AE00E94960161E0C9
:100870008BE00E94960161E08CE00E94960161E0AD
:100880008DE00E9496012D9A2B9A2C986AE070E0D8
:1008900080E090E00E94F70160E080E00E94660244
:1008A0002D9886E00E94480284E50E94480285E770
:1008B0000E94480285EC0E9448028AE20E94480297
:1008C0002D9A03E112E0C0E0F80161918F016F3FC2
:1008D00019F08C2F0E946602CF5FC333A9F780EA1C
:1008E0000E94590261E082E00E94660282E00E945A
:1008F0005E028111FBCF82E20E945E0263E184E22C
:100900000E94660269E085E20E94660280EA0E9417
:10091000590262E089E00E949601E7EBF0E08491E1
:10092000E3EAF0E09491EFE8F0E0E491EE2309F4DB
:1009300053C2882339F1833091F038F48130A9F023
:10094000823001F584B58F7D12C0873091F08830F8
:10095000A1F08430B9F4809180008F7D03C0809134
:1009600080008F77809380000DC084B58F7784BD21
:1009700009C08091B0008F7703C08091B0008F7D57
:100980008093B000F0E0EE0FFF1FE458FF4FA591F9
:10099000B491EC91E92309F41FC261E089E00E945F
:1009A000960180E080935302439A64EF71E080E007
:1009B00090E00E94F701439864EF71E080E090E0DE
:1009C0000E94F70180915302811114C08AE090E0E7
:1009D0000E941B078A3A41F7CBE0D0E0CE010E948B
:1009E0001B07FE01E05FFC4F80832196CF30D105CD
:1009F000A9F75AC080EA0E94590280EF0E9459026A
:100A000060E08FE00E94660280EC0E945902DFEFF6
:100A1000C0910001CC2369F16AE070E080E090E0D1
:100A20000E94F701C2FD439A8091000182FF439822
:100A30001A992FC080E00E945E0285FD1CC00E94B2
:100A400079020FE113E0FAE1EF2EF3E0FF2ECAE0A6
:100A5000D0E05801F80161918F01CE010E94230777
:100A6000F5018081F70181937F012196CF30D10577
:100A700081F7439A18C080EA0E94590280EF0E94D1
:100A8000590260E08FE00E94660280EC0E945902E9
:100A9000BFCF809100018150809300018111B8CFB8
:100AA000D0930001B5CFFFCF20911C0380911D038F
:100AB00090E0A0E0B0E0DC0199278827922B2091FC
:100AC0001B03822B20911E03B22B80934F02909325
:100AD0005002A0935102B0935202282F2F702093FE
:100AE0004E029927AA27BB27E4E0B695A7959795CC
:100AF0008795EA95D1F780934D0210924C020A97A0
:100B0000A105B10518F089E080934D0200E210E0E4
:100B10004AE0E42EF12C58EE852E53E0952EA12CC0
:100B2000B12C6FE0D62E80915A0390915B038132F5
:100B3000910530F0CD9730F010935B0300935A038A
:100B40000E948E020E94D2012B013C018091580329
:100B5000909159038139914008F50E94D201DC013E
:100B6000CB0184199509A609B7098C389540A105D0
:100B7000B10508F14398809158039091590301966B
:100B8000909359038093580380915A0390915B038B
:100B9000019690935B0380935A031BC110925903F3
:100BA00010925803E4E3F3E0E192F19243E0E4347D
:100BB000F407D1F7D2CF1A99C9CF80E00E945E0224
:100BC00085FDC4CF0E9479029091200380911B0380
:100BD0009813BCCF9091210380911C039813B6CF3A
:100BE0009091220380911D039813B0CF909123031D
:100BF00080911E039813AACF439A10925903109222
:100C0000580310925B0310925A03C0E0D0E0F894AE
:100C1000FE01E15EFC4F2581868190E0982F8827B8
:100C2000820F911D9093190380931803789420915B
:100C3000180330911903C9018152934087379540B9
:100C4000E0F4C901A0E0B0E09C01AD01285E3340B2
:100C500041095109A0E4B6E00E945007A5019401A2
:100C60000E943107DA01C90188539F4FAF4FBF4F30
:100C7000FE01EC5CFC4F918380832296C031D1054C
:100C800031F62FB7F8948091540290915502A091BB
:100C90005602B09157022FBF409114035091150393
:100CA0006091160370911703841B950BA60BB70B6D
:100CB0000897A105B10508F48CC02FB7F89480916E
:100CC000540290915502A0915602B09157022FBF45
:100CD0008093140390931503A0931603B093170306
:100CE00080E0E82FF0E0E25AFD4F10828F5F8931FB
:100CF000C1F7D0925E0280E061E020915A0290E05C
:100D0000903159F140E050E0E92FF0E0EE0FFF1F85
:100D1000EC5CFC4F883010F06F5F80E0A62FB0E0F5
:100D2000A25ABD4F20813181042E02C036952795ED
:100D30000A94E2F721703327082E01C0220F0A948B
:100D4000EAF73C91232B2C938F5F4F5F5F4F4B3023
:100D5000510501F79F5F2BE0D3CF80935C02609336
:100D60005D0220935A0290935B028091540390910C
:100D700055038115944028F080917502816080931D
:100D8000750280915603909157038115944028F085
:100D90008091750282608093750280915902882348
:100DA00029F08091750284608093750280915802C9
:100DB000882329F0809175028860809375021092D3
:100DC000760249E150E06EE572E087E792E00E942A
:100DD0008C000E948C01A7CE81E0E4CDE7E7F2E031
:100DE0001382128288EE93E0A0E0B0E084839583C2
:100DF000A683B78385E092E09183808385EC90E0C1
:100E00009587848784EC90E09787868780EC90E0D4
:100E1000918B808B81EC90E0938B828B82EC90E0C5
:100E2000958B848B86EC90E0978B868B118E128E3F
:100E3000138E148E0895F999FECF92BD81BDF89A54
:100E4000992780B50895262FF999FECF1FBA92BD34
:100E500081BD20BD0FB6F894FA9AF99A0FBE01969B
:100E60000895052E97FB1EF400940E94480757FD35
:100E700007D00E945B0707FC03D04EF40C94480790
:100E800050954095309521953F4F4F4F5F4F0895B6
:100E900090958095709561957F4F8F4F9F4F0895E6
:100EA0000E947D07A59F900DB49F900DA49F800D7B
:100EB000911D11240895A1E21A2EAA1BBB1BFD014E
:100EC0000DC0AA1FBB1FEE1FFF1FA217B307E40729
:100ED000F50720F0A21BB30BE40BF50B661F771F81
:100EE000881F991F1A9469F7609570958095909561
:100EF0009B01AC01BD01CF010895A29FB001B39F3A
:100F0000C001A39F700D811D1124911DB29F700D12
:100F1000811D1124911D0895EE0FFF1F0590F4917E
:100F2000E02D099481E090E0F8940C949707F894F0
:020F3000FFCFF1
:100F3200FF0A5A14641E6E287832823C8C46965000
:100F4200A0A05096468C3C823278286E1E64145AB9
:100F52000A0A5A50A0146446961E6E3C8C287832B7
:100F620082823278288C3C6E1E96466414A0505AB7
:100F72000A28780A5A50A014641E6E3C8C328246AB
:100F820096964682328C3C6E1E6414A0505A0A78A1
:100F92002850A028780A5A1E6E3C8C32824696143B
:100FA200646414964682328C3C6E1E5A0A7828A0DB
:100FB2005050A046963C8C28780A5A32821E6E14F3
:100FC2006464146E1E82325A0A78288C3C9646A0BB
:100FD2005046963C8C50A028780A5A1E6E328214D3
:100FE20064641482326E1E5A0A7828A0508C3C9691
:100FF2004646960A5A3C8C146450A028781E6E32DB
:101002008282326E1E7828A05064148C3C5A0A9652
:101012004646960A5A50A03C8C28781E6E3282149C
:1010220064641482326E1E78288C3CA0505A0A9650
:10103200460000000023018C00BB006A01EC00CADC
:1010420000DE00FF42001400FFFF0000000001214B
:101052000500509E4B0002162B1200628080000A8F
:1010620032C30F13C300FF00003B00174780030188
:06107200451800010FFF0C
:00000001FF
